:020000040800F2
:10000000602E002049010008B91D0008711B00087E
:10001000B51D0008F5100008673900080000000051
:10002000000000000000000000000000F5310008A2
:100030004919000800000000591E00089934000802
:100040006301000863010008630100086301000800
:1000500063010008630100086301000863010008F0
:1000600063010008630100086301000863010008E0
:1000700063010008630100086301000863010008D0
:1000800063010008630100086301000863010008C0
:1000900063010008630100086301000863010008B0
:1000A00063010008630100086301000863010008A0
:1000B000013500083D3500086301000863010008B0
:1000C0006301000863010008630100086301000880
:1000D00063010008CD3600086301000863010008D1
:1000E0006301000863010008630100086301000860
:1000F0006301000863010008630100086301000850
:100100006301000863010008653500086301000809
:10011000630100086301000863010008630100082F
:10012000630100086301000863010008630100081F
:10013000DFF810D000F082FD004800477942000847
:10014000AFF30080602E0020064880470648004735
:10015000FEE7FEE7FEE7FEE7FEE7FEE7FEE7FEE777
:10016000FEE7FEE7A1340008310100082DE9FF4F4A
:1001700095B00C464168009181680F91006813901A
:100180001898179D800814900F98006809900F9890
:1001900050F8041F089150F8041F079150F8041FED
:1001A0000B91416808300A910F900098D0E9006BDC
:1001B000D0E90289DDF850A0BAF1000F7DD000BF70
:1001C00054F8040B069049460A9800F0A8F90C90E0
:1001D00041460B9800F0A3F903905946079800F0A8
:1001E0009EF907463146089800F099F9814606992C
:1001F000099800F094F9494600F039F9394600F0C1
:1002000036F9039900F033F90C9900F030F945F80C
:10021000040B074654F804BB41460A9800F07FF9E6
:100220000C9039460B9800F07AF9804631460798D1
:1002300000F075F981460699089800F070F90646B5
:100240005946099800F06BF9314600F010F949461B
:1002500000F00DF9414600F00AF90C9900F007F999
:1002600045F8040B804654F8046B39460A9800F0B0
:1002700056F90E9041460B9800F051F90C90DDE9CB
:10028000061000F04CF981465946089800F047F9ED
:1002900007463146099800F042F9394600F0E7F880
:1002A000494600F0E4F80C9900F0E1F80E9900F0EE
:1002B000DEF8814645F8040B00E02EE054F8047B9C
:1002C00041460A9800F02BF90C9049460B9800F033
:1002D00026F90E905946079800F021F983463146D9
:1002E000089800F01CF980463946099800F017F983
:1002F000414600F0BCF8594600F0B9F80E9900F0FC
:10030000B6F80C9900F0B3F8B346804645F8040BF4
:100310003E46BAF1010A7FF453AF189810F0030774
:1003200032D0B7F1004F44D2002F2DDD54F804AB8A
:1003300049460A9800F0F3F80C9041460B9800F0FB
:10034000EEF803905946079800F0E9F883463146E5
:10035000089800F0E4F881465146099800F0DFF86B
:10036000494600F084F8594600F081F8039900F0FE
:100370007EF80C9900F07BF8B346C14645F8040BB3
:10038000564680467F1ED1D100980660009840F8FE
:1003900004BF40F8048FC0F8049008300090139810
:1003A000179C401E254613907FF4EEAE19B0BDE8B1
:1003B000F08F54F804AB49460A9800F0B0F80C905E
:1003C00041460B9800F0ABF803905946079800F0AF
:1003D000A6F883463146089800F0A1F881465146B8
:1003E000099800F09CF8494600F041F8594600F0A1
:1003F0003EF8039900F03BF80C9900F038F8B3464A
:10040000C14645F8040B564680467F1ED1D1BBE756
:1004100070B58260016004461D460901184600F06F
:100420001BF8656070BD40EA01039B0703D009E03B
:1004300008C9121F08C0042AFAD203E011F8013BD0
:1004400000F8013B521EF9D27047D2B201E000F829
:10045000012B491EFBD270470022F6E710B5134668
:100460000A4604461946FFF7F0FF204610BDF0B4D7
:1004700080EA0102D40F4200B2EB410F02D20246E1
:10048000084611464A0042D0C30DDDB2C1F3C7523F
:10049000AD1A202D35DAC1F3160141F4000204B182
:1004A0005242C5F1200602FA06F12A411044B3EB8C
:1004B000D05F23D0C4B1012DA0EBC35009DCF0BC48
:1004C0004FF0004202EAC352DBB200F5000000F038
:1004D000FABA400000F1807000EBC350A0F18070C8
:1004E00040EAD170490009E0490841EAC071A0EB37
:1004F000C35000F50000400800EBC350F0BC00F012
:10050000D9BA6142012202EB4101001BF6E7F0BCBF
:10051000704781F00041AAE780F00040A7E780EA39
:10052000010210B502F00043400022D04A001FD063
:10053000010E01EB1261C0F35600C2F3560240F403
:10054000000042F40002A0FB022000047F391404E2
:1005500000D0401C50EA124001D44000491EC2B2F3
:100560000C0604EBD010401C4008802A02D003E0A7
:10057000002010BD20F00100002900DA00201843FF
:1005800010BD30B480EA010202F0004530F00042B4
:1005900021F0004013D090B1C30DD40DC2F3160169
:1005A000C0F31600E41A41F4000140F400027D3467
:1005B000914201D3641C00E04900002C02DA30BCF7
:1005C000002070474FF400000023914201D3891AA4
:1005D000034340084FEA4101F7D151B1914202D1A2
:1005E0004FF0004105E002D24FF0010101E06FF051
:1005F000010103EBC450284430BC00F05BBA2DE984
:10060000FE4F804681EA0300C00F0C46009021F0A7
:10061000004123F00045B8EB0200A94105D2404655
:10062000214690461C460B46024623F000401043EC
:1006300047D0270DC7F30A00C3F30A510290401AAE
:10064000019040286BDAC3F3130040F4801B00983C
:10065000924620B10023D2EB030A63EB0B0B019807
:100660005946C0F14002504600F003FA06460D46D6
:1006700050465946019A00F00BFA10EB0800614110
:10068000002487EA115284EAE7731A4340D0009AA3
:1006900062B3019A012A4FEA075215DC001B61EB95
:1006A00002014FF0004202EA0752CDE90042001C6D
:1006B00041F5801132462B4600F042FA03B0BDE806
:1006C000F08F40462146F9E7001B61EB0201001C58
:1006D00041F5801300185B412018A2F5001747EB85
:1006E000030140EAD570B6196D4111E06D084FEA7B
:1006F000360645EAC0754FEA0752001B61EB02015E
:10070000001C41F5801149084FEA300000195141A1
:1007100032462B4603B0BDE8F04F00F002BA009815
:10072000012240000023D0EB020263EBE07300984B
:1007300021464FEAE074B8EB000061EB0401E9E701
:1007400083F000435BE781F0004158E72DE9FE4F5D
:1007500081EA030404F0004421F0004100944FF0CA
:10076000000B23F0004350EA01045ED052EA030478
:100770005BD0C3F30A54C1F30A552C44A4F2F334FA
:100780000194A0FB0254C1F3130141F48011C3F39F
:10079000130343F4801301FB024400FB034E840A5D
:1007A000970A44EA815447EA8357A4FB07680295F5
:1007B0008D0A05FB07854FEA932C04FB0C54270593
:1007C000029D4FEA065847EA1637B5EB08056EEB6F
:1007D000070C870E920E47EA811742EA8312A7FBA5
:1007E0000201B6EB0B0164EB00042B0D43EA0C3362
:1007F0005E1844EB1C50DA465146E7FB0201C5F394
:1008000013044FEA0B3343EA14534FEA0432019CBA
:1008100043EA0603A4F10C040294009CCDE900B461
:1008200000F08EF903B0BDE8F08F00200146F9E733
:100830002DE9F04D81EA030404F0004B21F000455E
:1008400014464FF0000A23F0004150EA050220D080
:1008500054EA01021DD0C5F30A570246C5F313033B
:10086000C1F31300C1F30A5640F4801543F480131A
:10087000A7EB0608101BD64608F2FD3873EB0500FF
:1008800002D308F1010801E092185B41B8F1000FB2
:1008900003DA00200146BDE8F08D00204FF48011FE
:1008A000064684460EE0171B73EB050705D3121BA3
:1008B00063EB050306434CEA010C49084FEA30009C
:1008C00092185B4150EA0107EDD152EA030012D0C1
:1008D00082EA040083EA0501084305D0101BAB41FE
:1008E00006D20122002306E000224FF0004302E07E
:1008F0006FF0010253101AEB06004CEB085110EB9D
:100900000A0041EB0B01BDE8F04D00F00AB9C10F40
:1009100080EAE0700844CA079623002100F0D3B8AB
:1009200096230022114600F0CEB800F0004220F0DD
:100930000040C10DC0F3160040F400007F2901DA29
:1009400000207047962903DCC1F19601C84001E000
:1009500096398840002AF4D04042704700F00042A7
:1009600030F000400AD0C10D01F56071C0F31600EF
:1009700042EA0151C2084007114370470020014676
:10098000704701F0004330B421F0004150EA010209
:1009900006D00A0DA2F56072C1F31301002A02DC31
:1009A00030BC00207047440F44EAC104C100E01885
:1009B00030BC00EBC25000F07DB80000002801DB25
:1009C000C0F10040002901DBC1F1004181427047C4
:1009D000002801DBC0F10040002901DBC1F100412A
:1009E0008842704730B50B46014600202022012482
:1009F00009E021FA02F59D4205D303FA02F5491BED
:100A000004FA02F52844151EA2F10102F1DC30BD02
:100A10002DE9F05F0546002092469B468846064633
:100A2000814640241BE0284641464746224600F0C6
:100A300017F953465A46C01A914110D31146184629
:100A4000224600F016F82D1A67EB01084F462246A1
:100A50000120002100F00DF817EB00094E41201E87
:100A6000A4F10104DFDC484631462A464346BDE88E
:100A7000F09F202A04DB203A00FA02F100207047A0
:100A80009140C2F1200320FA03F3194390407047CC
:100A9000202A06DBCB17203A41FA02F043EAE07342
:100AA00006E041FA02F3D040C2F12002914008432F
:100AB000194670470029A8BF7047401C490008BF6D
:100AC00020F00100704710B4B0FA80FC00FA0CF07E
:100AD00050EA010404BF10BC704749B1CCF12004B6
:100AE00021FA04F411FA0CF118BF01212143084343
:100AF000A3EB0C01CB1D4FEA00614FEA102042BF6F
:100B0000002010BC704700EBC35010440029A4BF64
:100B100010BC7047401C490008BF20F0010010BC09
:100B2000704710B5141E73F1000408DA401C41F13F
:100B3000000192185B411A4301D120F0010010BD61
:100B40002DE9F04D92469B4611B1B1FA81F202E0D7
:100B5000B0FA80F220329046FFF78BFF04460F4632
:100B600040EA0A0041EA0B0153465A46084313D0B3
:100B7000114653EA010019D0C8F14002504600F076
:100B80006FF805460E46504659464246FFF771FF3C
:100B9000084305D0012004E020463946BDE8F08D29
:100BA0000020054346EAE0762C4337430A98630564
:100BB000E40AA0EB08000022FD0A44EA47540A3088
:100BC00002D500200146E9E7010510196941DDE978
:100BD000084500196941BDE8F04DA2E7C1F30A528A
:100BE000C1F3130140F2FF3341F480119A4202DA5B
:100BF00000200146704740F233439A42A2F233424A
:100C000002DC524200F02CB8FFF733BF30B5041EAF
:100C100071F1000404DB4FF00044404264EB010139
:100C2000141E73F1000405DB1C464FF000435242D2
:100C300063EB0403994208BF904230BD064C074D58
:100C400006E0E06840F0010394E80700984710349C
:100C5000AC42F6D3FFF770FA8C430008AC430008AF
:100C6000202A04DB203A21FA02F00021704721FA01
:100C700002F3D040C2F12002914008431946704768
:100C800021B1826842F00102826003E0826822F0B2
:100C900001028260704721B1826842F480728260F2
:100CA00003E0826822F480728260704721B182681A
:100CB00042F48012826003E0826822F48012826033
:100CC0007047014600208A6802F004020AB1012040
:100CD00000E000207047014600208A6802F0080208
:100CE0000AB1012000E000207047000030B5024644
:100CF0000020002350680F4C20400D790C6844EA16
:100D000005242043506090680B4C2040D1E90254E8
:100D10002C434D7944EA450420439060D06A20F486
:100D200070000C7C641EE4B2234340EA0350D0629E
:100D300030BD0000FFFEF0FFFDF7F1FFF0B5044607
:100D40000D4600200021092D11DDE068A5F10A06FD
:100D500006EB4607072606FA07F18843A5F10A06BF
:100D600006EB460603FA06F10843E0600CE0206952
:100D700005EB4507072606FA07F1884305EB45060C
:100D800003FA06F108432061072A0FDA606B561E4A
:100D900006EB86071F2606FA07F18843561E06EB68
:100DA000860605FA06F10843606322E00D2A0FDA91
:100DB000206BD61F06EB86071F2606FA07F188432D
:100DC000D61F06EB860605FA06F10843206310E0FD
:100DD000E06AA2F10D0606EB86071F2606FA07F168
:100DE0008843A2F10D0606EB860605FA06F10843D4
:100DF000E062F0BD816841F0080181607047816860
:100E000041F00401816070472DE9F05F04464FF026
:100E10007E5045490860C00148604FF07E508860B0
:100E20004249086042484860424888604FF07E501E
:100E300041490860C00148604FF07E5088603F49DA
:100E400008603F4848603F4888603F492068086024
:100E50000A465168344A5068FFF761FB82463B4AB4
:100E60009168324A9068FFF75AFB83462F484068E2
:100E700080F00049354841684846FFF750FB8046FE
:100E80005946FFF746FB07462F4801683846FFF7EB
:100E9000EEFA06465146FFF7EAFA05462A48816807
:100EA0002846FFF7E4FA29490860274A5168224A90
:100EB0005068FFF734FB8246244A91681F4A9068C5
:100EC000FFF72DFB83461D48406880F000491F480E
:100ED00041684846FFF723FB80465946FFF719FB58
:100EE0000746194801683846FFF7C1FA06465146D9
:100EF000FFF7BDFA0546144881682846FFF7B7FAA0
:100F000012490860084640688860084600684860E2
:100F10000D4840680C4988600846006848600B48E6
:100F200000682060BDE8F09FA4010020B00100200F
:100F300035C1FEBF2A8C7D3FBC010020C8010020C6
:100F4000C70AFDBFC81F7A3FD4010020E00100207E
:100F50002DE9F05F04464FF07E5045490860C0011E
:100F600048604FF07E5088604249086042484860BF
:100F7000424888604FF07E5041490860C001486097
:100F80004FF07E5088603F4908603F4848603F48C6
:100F900088603F49206808600A465168344A5068B2
:100FA000FFF7BDFA82463B4A9168324A9068FFF7E4
:100FB000B6FA83462F48406880F0004935484168BA
:100FC0004846FFF7ACFA80465946FFF7A2FA0746B3
:100FD0002F4801683846FFF74AFA06465146FFF7A0
:100FE00046FA05462A4881682846FFF740FA29490B
:100FF0000860274A5168224A5068FFF790FA8246F3
:10100000244A91681F4A9068FFF789FA83461D4871
:10101000406880F000491F4841684846FFF77FFA62
:1010200080465946FFF775FA074619480168384661
:10103000FFF71DFA06465146FFF719FA0546144810
:1010400081682846FFF713FA12490860084640688D
:1010500088600846006848600D4840680C49886010
:101060000846006848600B4800682060BDE8F09FB3
:101070005C0100206801002035C1FEBF2A8C7D3F45
:101080007401002080010020C70AFDBFC81F7A3FFD
:101090008C010020980100202DE9F04105460E4604
:1010A00000270024A04600BF1FE0002418E0621CB7
:1010B00055F8221055F82400FFF78AFC0FD255F896
:1010C0002400FFF732FC8046601C55F8200045F8EC
:1010D00024004046FFF71BFC611C45F82100641CFE
:1010E000701EC01BA042E2DC7F1C701EB842DCDC1C
:1010F000BDE8F08100BFFEE72DE9FC5F81460C46AC
:1011000000200190002C2ADD204604EBD07149100C
:10111000A4EB410139B1204604EBD071491059F8D4
:10112000211001911BE0A24604EBDA725210521E0C
:1011300059F82210A34604EBDB72521059F8220032
:10114000FFF795F90090FFF709FC074600224FF0E2
:101150008043FFF76DFB0546FFF713FC01900198F4
:10116000BDE8FC9F00200149087070478500002001
:1011700000200149087070478400002000B587B046
:101180004FF4004000F0BCFE0121480200F0E4FEF4
:101190000121042000F0E0FE2020ADF8180000201E
:1011A0008DF81B0006A91E4800F034FC00200190B9
:1011B00001208DF8080000208DF809004FF4002070
:1011C00003900020049001208DF8140001A9154817
:1011D000FFF78CFD0723012205211248FFF7AEFD22
:1011E00001211048FFF757FD01210E48FFF75EFD72
:1011F00001210C48FFF744FD0A48FFF7FBFD00BF43
:101200000848FFF768FD0028FAD10648FFF7F7FD08
:1012100000BF0448FFF755FD0028FAD107B000BD14
:10122000000801400024014000B585B001210420E0
:1012300000F092FE0121480700F07EFE1020ADF87C
:10124000100003208DF8120000208DF8130004A96F
:101250000A4800F0DFFB3C20009000200190029043
:101260000390694600F01AFA0021084600F030FAAF
:101270000121002000F0FEF905B000BD000801408A
:1012800000B58BB00121084600F046FE114800F081
:1012900051FA11480090114801900020029001205D
:1012A000039000200490802005904000069080006C
:1012B000079020200890C001099000200A906946FC
:1012C000044800F0DDFA0121024800F027FA0BB0D3
:1012D00000BD0000080002404C24014090000020A6
:1012E00008B50121042000F037FE0121102000F094
:1012F00033FE0220ADF8000048208DF80300694657
:101300000B4800F087FB0420ADF8000048208DF862
:1013100003006946064800F07DFB0120ADF800009F
:1013200048208DF803006946024800F073FB08BDB1
:10133000001001400008014008B50121102000F014
:101340000BFE1020ADF8000003208DF802001020E5
:101350008DF8030069460D4800F05CFB0122102166
:101360000A4800F0F4FB2020ADF8000003208DF8BF
:10137000020010208DF803006946044800F04AFB83
:1013800000222021014800F0E2FB08BD00100140CE
:1013900010B54FF4A06000F055FD10BD10B500F081
:1013A000EBFD4FF4803000F0A9FE00F005FF04468D
:1013B000012C24D1102000F013FB022000F01EFBB2
:1013C000002000F08FFE002000F0CAFEA00200F016
:1013D000BBFE4FF4E011200400F0D4FE012000F029
:1013E000CBFE00BF392000F057FE0028FAD00220C3
:1013F00000F0D6FE00BF00F06DFE0828FBD110BD46
:1014000008B50121102000F0A7FD0121082000F0FF
:10141000A3FD0121082000F09FFD4FF40050ADF81E
:10142000000003208DF8020010208DF803006946AB
:10143000154800F0EFFA0420ADF8000003208DF805
:10144000020028208DF803006946104800F0E2FAF7
:101450004020ADF8000003208DF8020010208DF828
:1014600003006946094800F0D5FA8020ADF8000075
:1014700003208DF8020010208DF803006946034810
:1014800000F0C8FA08BD000000100140000C014047
:101490007FB505460C460121084600F04DFDADF82C
:1014A0000850ADF804400020ADF80A00ADF8060081
:1014B00001A94FF0804002F0ABF8012211469007DD
:1014C00002F094F81C208DF8000000208DF8010037
:1014D00003208DF8020001208DF80300684600F01B
:1014E00079FC0121880702F064F87FBD7FB50546CD
:1014F0000C460121022000F01FFDADF80850ADF8A8
:1015000004400020ADF80A00ADF8060001A90F481C
:1015100002F07EF820210D4802F071F801221146F8
:101520000A4802F063F81D208DF8000001208DF8B4
:1015300001008DF802008DF80300684600F04AFCB7
:101540000121024802F035F87FBD00000004004090
:101550007FB505460C460121082000F0EDFCADF8F2
:101560000850ADF804400020ADF80A00ADF80600C0
:1015700001A90E4802F04CF8012211460B4802F076
:1015800035F832208DF8000000208DF8010003208E
:101590008DF8020001208DF80300684600F01AFC67
:1015A0000121024802F005F87FBD0000000C004058
:1015B00010B586B004460121880300F0CDFC01215E
:1015C000042000F0C9FC4FF40070ADF8140018209E
:1015D0008DF8170003208DF8160005A9224800F0A9
:1015E00019FA4FF48060ADF8140004208DF817004C
:1015F00005A91D4800F00EFA01A802F0A8F901940F
:101600000020ADF80800ADF80A00ADF80C000C2081
:10161000ADF80E000020ADF8100001A9134802F04B
:1016200021F925208DF8000001208DF801008DF8AA
:1016300002008DF80300684600F0CCFB012240F266
:1016400025510A4802F0E9F8012240F227710748C3
:1016500002F0E3F80121054802F09CF8002004495B
:10166000087006B010BD00000008014000380140BD
:101670008A00002039B1084A1268012383401A43C6
:10168000054B1A6006E0044A1268012383409A431E
:10169000014B1A60704700000074004030B5002212
:1016A00000230A4C226840F6FE748440A243D1E92C
:1016B00000452C438D682C43CD6844EA050303FAAA
:1016C00000F42243014C226030BD00000074004051
:1016D00008B500220092054A009200F10802009B22
:1016E0001A440092009A116008BD00000074004086
:1016F00010B541B1084A126804090123A3401A43F6
:10170000054B1A6007E0044A126804090123A3404C
:101710009A43014B1A6010BD0474004021B1026865
:1017200042F00102026004E002684FF6FE731A40C4
:101730000260704701684FF6FE721140016000219F
:10174000016041608160C1604B49884208D14A49CB
:101750000839496841F00F01474A083A51608AE068
:1017600045491431884208D143490839496841F054
:10177000F001414A083A51607DE03F4928318842F2
:1017800008D13D490839496841F470613A4A083A3C
:10179000516070E038493C31884208D136490839F7
:1017A000496841F47041344A083A516063E0324973
:1017B0005031884208D130490839496841F47021D4
:1017C0002D4A083A516056E02B496431884208D1CD
:1017D00029490839496841F47001274A083A51609B
:1017E00049E025497831884208D1234908394968B8
:1017F00041F07061204A083A51603CE01F4988423C
:1018000006D1011F096841F00F01021F116032E08B
:101810001A491431884208D11849091F096841F052
:10182000F001164A121F116025E014492831884240
:1018300008D11249091F096841F470610F4A121F4B
:10184000116018E00D493C31884208D10B49091F4D
:10185000096841F47041094A121F11600BE0074901
:101860005031884207D10549091F096841F47021A8
:10187000024A121F1160704708000240080402402B
:1018800010B50022026847F6F0739A430C6A8B6821
:1018900023430C6923434C6923438C692343CC695C
:1018A00023434C6A23438C6A23431A430260CB6868
:1018B00043600B6883604B68C36010BD30B503465E
:1018C000002016E0B3F900509C68645D0C541C883D
:1018D000641C24B21C80B3F90040B3F90450AC423C
:1018E00001DB00241C80441C20B2DC88641E24B26E
:1018F000DC80B3F90640002C01DD9042E2DB30BD14
:1019000030B50346002018E0B3F900509C6834F865
:10191000154021F810401C88641C24B21C80B3F9C7
:101920000040B3F90450AC4201DB00241C80441C8D
:1019300020B2DC88641E24B2DC80B3F90640002C9F
:1019400001DD9042E0DB30BD704770B503460020FA
:1019500016E00C5CB3F902609D68AC555C88641CB1
:1019600024B25C80B3F90240B3F90450AC4201DB0D
:1019700000245C80441C20B2DC88641C24B2DC801F
:10198000B3F90640B3F90450AC4201DA9042E0DB0F
:1019900070BD70B50346002018E031F81040B3F96F
:1019A00002609D6825F816405C88641C24B25C8047
:1019B000B3F90240B3F90450AC4201DB00245C806F
:1019C000441C20B2DC88641C24B2DC80B3F90640DD
:1019D000B3F90450AC4201DA9042DEDB70BD000086
:1019E0000549096821F01001034A11601146096890
:1019F00001431160704700000020024001460020B2
:101A0000034A106800F03800084310607047000077
:101A1000002002402DE9F04102460025002600206A
:101A200000230024002791F803C00CF00F0591F863
:101A300003C00CF0100CBCF1000F03D091F802C0F1
:101A40004CEA050591F800C0BCF1000F31D01468D4
:101A500000202BE04FF0010C0CFA00F3B1F800C0AD
:101A60000CEA03069E4220D183004FF00F0C0CFAC3
:101A700003F7BC4305FA03FC4CEA040491F803C0E5
:101A8000BCF1280F06D14FF0010C0CFA00FCC2F893
:101A900014C00AE091F803C0BCF1480F05D14FF023
:101AA000010C0CFA00FCC2F810C0401C0828D1D36D
:101AB0001460B1F800C0BCF1FF0F34DD54680020A1
:101AC0002EE000F1080C4FF0010808FA0CF3B1F811
:101AD00000C00CEA03069E4221D183004FF00F0C98
:101AE0000CFA03F7BC4305FA03FC4CEA040491F832
:101AF00003C0BCF1280F05D100F1080C08FA0CF85E
:101B0000C2F8148091F803C0BCF1480F07D100F16E
:101B1000080C4FF0010808FA0CF8C2F81080401CBD
:101B20000828CED35460BDE8F081024600209368B7
:101B30000B400BB1012000E000207047024600205E
:101B4000D3680B400BB1012000E0002070470AB1C0
:101B5000016100E041617047014800787047000072
:101B600085000020014800787047000084000020B4
:101B700000BFFEE710B540F2CF21C720FFF7B6FC4B
:101B8000FFF7FCFAFFF77CFB0A220249024800F04B
:101B9000B7F810BD482A00203C2A002010B5FFF7F6
:101BA00043FB10BD10B5094800F042FC084B094A40
:101BB00002210948FEF72CFC084800F039FC084BCC
:101BC000044A02210748FEF723FC10BDC400002090
:101BD0001C010020BC42000804010020E400002099
:101BE0003C0100201001002010B501F059FC00F06C
:101BF0003EF800F025F84FF4E13000F094F800F0E2
:101C000073F800F019F800F03BF8FFF7C7FFFFF793
:101C1000B1FF00F019F800F003F800F0BFFE10BDAE
:101C200010B5FFF75DFB002002490870487088700E
:101C300010BD00000000002010B5FFF77DFB10BDB7
:101C400010B5FFF7A5FB10BD704730B50B4600245B
:101C5000048044808280C4808360002104E00024EA
:101C600085686C544C1C21B29142F8DB30BD10B534
:101C7000FFF794FB10BD10B5FFF794FF10BD0000F7
:101C800030B5164800684FF47A72B0FBF2F1B1F14A
:101C9000807F01D301201DE021F07F40401E4FF0E6
:101CA000E022506150170F22002807DA13071D0E9B
:101CB0000B4B00F00F04241F1D5503E013071C0EEF
:101CC000084B1C5400BF00204FF0E0229061072019
:101CD0001061002008B100BFFEE730BDAC0000205D
:101CE00018ED00E000E400E010B5472140F2E730D5
:101CF000FFF7CEFB472140F2E730FFF729FC10BD8C
:101D000030B50B460024048044808280C480836008
:101D1000002105E00024856825F811404C1C21B203
:101D20009142F7DB30BD10B5044600F005F82046BF
:101D3000FFF73EFC10BD000010B5002406E00020B7
:101D40000949085509490855601C04B2642CF6DBA2
:101D5000642205490648FFF778FF642203490548D5
:101D6000FFF773FF10BD000074290020D829002060
:101D70005C2900206829002070B504460B480088C3
:101D8000401C0A49088008460088A0420DDB00205C
:101D9000088010210648FFF7D1FEC0F10100C5B24E
:101DA0002A4610210248FFF7D2FE70BD0A0000202B
:101DB0000010014000BFFEE77047000000F01F0266
:101DC00001219140024A430942F823107047000064
:101DD00080E200E070B5002100230F22C47804B334
:101DE000154C246804F4E064C4F5E064210AC1F1F0
:101DF0000403CA40447804FA03F184781440214370
:101E000009010E4C0678A155047804F01F05012441
:101E1000AC4005786D11AD0005F1E025C5F8004135
:101E200009E0047804F01F050124AC40044D067855
:101E3000761145F8264070BD0CED00E000E400E0AE
:101E400080E100E002490143024A1160704700004E
:101E50000000FA050CED00E0704710B5FFF77CFEBE
:101E600008B1FFF77FF910BD08B5FFF77BFE60B141
:101E70000121684600F0D8F901F0E4F89620FFF758
:101E80007BFF01F013FAFFF773F908BD10B501F0FD
:101E900087F8C0F10100C4B2204601F06FF801F0EC
:101EA0007FF80446214602A001F078FD10BD000035
:101EB0004368616E67652053504F325F537461729F
:101EC00074496E666F3A25630A0000000548007881
:101ED000302803D131200349087002E03020014945
:101EE000087070470C0000207047704770477047BB
:101EF0000146C88808B9012070470020FCE70000AF
:101F000001460020034A506820F4404008435060D6
:101F1000704700000010024029B1064A526902438E
:101F2000044B5A6104E0034A52698243014B5A61EF
:101F3000704700000010024029B1064AD2690243EE
:101F4000044BDA6104E0034AD2698243014BDA614F
:101F5000704700000010024029B1064A926902430E
:101F6000044B9A6104E0034A92698243014B9A61EF
:101F700070470000001002400F48006840F0010068
:101F80000D490860084640680C4908400A49486005
:101F9000084600680A490840074908600846006882
:101FA00020F4802008600846406820F4FE00486065
:101FB0004FF41F0088607047001002400000FFF8D7
:101FC000FFFFF6FE30B500210022002400232D4D36
:101FD0006D6805F00C0121B1042905D0082923D131
:101FE00005E0294D056022E0274D05601FE0254DE5
:101FF0006D6805F47012234D6D6805F48034022578
:1020000005EB92421CB9214D554305600BE01D4D77
:102010006D6805F400351DB11C4D5543056002E0A7
:10202000194D5543056002E0174D056000BF00BF24
:10203000144D6D6805F0F0010909154D6B5C0568DC
:10204000DD4045600F4D6D6805F4E061090A104DF3
:102050006B5C4568DD4085600A4D6D6805F4605134
:10206000C90A0B4D6B5C4568DD40C560054D6D6868
:1020700005F44041890B074D6B5CC568B5FBF3F572
:10208000056130BD0010024000127A0000093D00D9
:1020900092000020A200002010B50146002200237B
:1020A00000204A11012A02D1094C236806E0022AC5
:1020B00002D1074C236A01E0054C636A01F01F025C
:1020C000012494401C400CB1012000E0002010BD10
:1020D000001002400248406800F00C007047000009
:1020E0000010024001460020034A506820F0F00032
:1020F0000843506070470000001002401149096811
:1021000021F480310F4A11601146096821F48021C1
:102110001160B0F5803F03D0B0F5802F0ED106E0FE
:102120000849096841F48031064A116007E0054911
:10213000096841F4A021034A116000E000BF00BF1C
:10214000704700000010024001460020034A50681A
:1021500020F4E06008435060704700000010024027
:1021600001460020034A506820F4605040EAC10054
:102170005060704700100240014908667047000037
:102180000000424202460020044B586820F47C10B4
:1021900042EA01031843014B5860704700100240A7
:1021A00001460020034A506820F0030008435060B5
:1021B000704700000010024038B500200090002455
:1021C000002500BF3120FFF767FF05460098401C3F
:1021D00000900098B0F5A06F01D0002DF2D0312012
:1021E000FFF75AFF08B1012400E00024204638BD63
:1021F00070B504460025012221460348FFF780FB05
:10220000C5B2284670BD00003C2A002070B50446C7
:102210000025012221460348FFF750FBC5B228469E
:1022200070BD00005C29002070B504460D460026F4
:102230002A4621460248FFF741FBC6B2304670BD30
:102240006829002038B50D480078401C0B490870FB
:1022500008460078012810DB6846FFF7C9FF48B13F
:10226000BDF80000FEF75CFB0446054805490988F7
:1022700040F8214000200149087038BD1E000020B0
:102280002C0800201000002038B50D480078401CB4
:102290000B49087008460078012810DB6846FFF7F4
:1022A000A7FF48B1BDF80000FEF73AFB0446054819
:1022B0000549098840F8214000200149087038BDCF
:1022C0001D000020EC0100201000002010B5174870
:1022D0000078012828D11648006820B915A118A057
:1022E00001F05CFB1DE012480068012815D1174879
:1022F000006820B916A112A001F050FB11E01348AC
:102300000068012804D115A10DA001F047FB08E0E9
:1023100015A10BA001F042FB03E017A108A001F0FA
:102320003DFB00200149087010BD00007000002036
:102330005C000020D5FDD4DAB4D6B5F7000000006B
:102340005B5B342C25735D5D0D0A00006C00002082
:10235000D5FDD4DACFB8B5F700000000CFB8B5F797
:10236000CDEAB1CF00000000CFB8B5F7B3F5CABCD5
:102370002FD2ECB3A3000000B4D6B5F7B3F5CABCB6
:102380002FD2ECB3A300000010B50121064800F0E5
:1023900037FA0021054800F033FA00F0A1FA00F006
:1023A000C1FE00F097FD10BD2C080020EC010020BC
:1023B00070B505460C460121204601F025F8094973
:1023C00048600021284601F01FF80649086000F027
:1023D00019FD00F03BF80448006800F0B1FDFFF77C
:1023E00075FF70BD540000201800002070B5044631
:1023F0000D46A26954F82210E069FEF78AF8E06100
:10240000A06944F820502946E069FEF730F8E06101
:10241000A069401CA061A069062801DB0020A06122
:102420000249E069FEF7ADF870BD00000000C04051
:10243000002100BF03E0002240F82120491C0629AA
:10244000F9DB00228261C2617047000010B5334899
:102450000068012800D010BD314948683149FEF7B5
:10246000ADFA05D92E4908682E49FEF7A7FA20D8FB
:102470002D48006828B100202B49086001202B4915
:1024800008702B480068401C2949086029480068EA
:102490001E2841DB0020086027480068152805DB5E
:1024A00025480068401E2449086035E000F090FC93
:1024B00032E01B4948682149FEF78AFA05D91849D4
:1024C00008681E49FEF784FA1DD81748006828B12D
:1024D000002015490860012014490870154800685B
:1024E0001E2819DB00201249086013480068B0F567
:1024F000967F05DA10480068401C0F4908600BE021
:1025000000F066FC08E008480068012804D00120BB
:10251000054908600549087000BF9CE75C00002081
:1025200054000020000096446C0000207000002041
:102530006800002064000020180000200080BB44D8
:1025400070B505460C4624480078012823D123495C
:102550002846FEF733FA04D920492046FEF72EFA22
:1025600015D800201E4908601E480068401C1D49FF
:1025700008600846006864282CDB002016490870B3
:1025800001201949087000201649086022E0002047
:10259000144908601EE011492846FEF719FA04D3D1
:1025A0000E492046FEF714FA11D20D480068401C6F
:1025B0000B4908600846006864280BDB01200649C7
:1025C00008700949087000200549086002E00020F1
:1025D0000349086070BD0000410000200000C842AF
:1025E000800000207C0000204200002070B50546DD
:1025F000002400BF33E0ACB91E492846FEF7E8F9D5
:102600002CD21D4951F83400FEF781F906462946BF
:10261000FEF7DEF922D8184901EBC4014868FEF73D
:1026200076F970BD611E144A52F83100FEF76FF959
:1026300006462946FEF7C2F910D20F4951F8340078
:10264000FEF765F906462946FEF7C2F906D80A499B
:1026500001EBC4014868FEF75AF9E2E7641C152C47
:10266000C9D304492846FEF7A9F901D80348D8E799
:102670002846D6E700801344E44200080000C64222
:102680002DE9F04782465046FEF768F98046094A30
:10269000094BFEF75BF8064632460B460020074919
:1026A000FEF7C6F80446FEF76CF905490860BDE878
:1026B000F08700007B14AE47E17A843F00004E4073
:1026C000240000202DE9F041054600266F1E00245D
:1026D00000BF0CE00D4A52F824101346621C53F858
:1026E0002200FDF716FF0A4941F82400641C681E09
:1026F000A042EFDC39460648FEF7CEFC39460448D6
:10270000FEF7FAFC06463046BDE8F0816C0E00206C
:10271000EC1A00202DE9F04705460F46002600245C
:1027200000BF32E055F824003946FEF751F92BD8A6
:10273000621E55F8221055F82400FEF749F923D2FD
:10274000621C55F8221055F82400FEF741F91BD2FF
:10275000B6F5487F00DB1BE02046FEF7D8F881463F
:10276000701E0D4A52F820104846FDF7D2FE8046F2
:102770000A49FEF72DF907D22046FEF7C8F8314680
:10278000761C054A42F82100641CB4F5C77FC9DDF8
:1027900000BF3046BDE8F0876C0E002000002041ED
:1027A0002DE9F04F87B08246134800EBCA0040681D
:1027B0000590114850F83AB059460598FDF7A9FE22
:1027C0000190FEF7CBF880464FF033320B4BFDF70C
:1027D000BDFF06460F465846FEF7C0F832463B4658
:1027E000CDE90201FDF70BFF0446FEF7CAF804909D
:1027F000049807B0BDE8F08F6C2700203333EB3F1F
:102800002DE9F0478AB005460E46DFF8B490DFF8B0
:10281000B4A0002410E055F824004946FEF7D8F88B
:1028200001D255F8249055F824005146FEF7C6F819
:1028300001D255F824A0641CB4F5C87FEBDB1EB9A7
:10284000214FDFF8888002E0214FDFF8888022489E
:10285000006847F820902048006848F820A0012E22
:1028600009D11D480068401C052190FBF1F201FBD5
:102870001200194908601422394605A8FDF7D3FD56
:10288000142241466846FDF7CEFD052105A8FEF756
:1028900003FC05216846FEF7FFFB052105A8FEF7AE
:1028A0002BFC0E4901EBC601486005216846FEF786
:1028B00023FC0A4941F836000AB0BDE8F087000061
:1028C000286B6ECE286B6E4E7C2700209027002050
:1028D000A4270020B82700203C0000206C270020FF
:1028E0002DE9F0410120FFF75BFF8046FEF736F847
:1028F00005460E4628463146FEF743F880464146D7
:102900000648FFF707FF04462046FFF7DBFE0746B1
:102910003846FFF7B5FEBDE8F08100002C08002026
:1029200010B5044608480078302802D0312805D177
:1029300000E007E0204600F015F803E003A001F0F6
:102940002DF800BF00BF10BD0C0000204552524FB3
:10295000523AC2CBB2A8C6F7D1A1D4F1B4EDCEF3AE
:102960000000000010B50446012322462146094814
:10297000FDF7FCFB4FF07E512068FDF7D0FD206095
:102980002046FEF741FA04482168FFF72FFD20603A
:1029900010BD000010010020E400002010B514203C
:1029A000184908600846006800F0CAFAFEF728FDDA
:1029B00000201549087015A000F0F0FF17A000F0E6
:1029C000EDFF1AA000F0EAFF1CA000F0E7FF1FA037
:1029D00000F0E4FF22A123A000F0E0FF20A124A04A
:1029E00000F0DCFF1EA125A000F0D8FF1CA126A04E
:1029F00000F0D4FF1AA127A000F0D0FF0020284942
:102A0000086010BD18000020120000207B7B312CD4
:102A1000C2F6C2CA7D7D0D0A000000007B7B322C0D
:102A2000D1AAD1F57D7D0D0A000000007B7B332CFF
:102A3000414443D6B57D7D0D0A0000007B7B342CDC
:102A4000B5F7B9E27D7D0D0A000000007B7B352CD7
:102A5000B5BCC1AABCECB2E27D7D0D0A000000004D
:102A60002D2D2D005B5B312C25735D5D0D0A000063
:102A70005B5B322C25735D5D0D0A00005B5B332CC4
:102A800025735D5D0D0A00005B5B342C25735D5D75
:102A90000D0A00005B5B352C25735D5D0D0A00009F
:102AA0001400002070B504460D462946204600F06B
:102AB000FBF829462046FFF743FD00F001F870BD02
:102AC00010B517480078012828D11648007820B999
:102AD00015A118A000F062FF1DE01248007801283F
:102AE00015D11748007820B916A112A000F056FFA2
:102AF00011E013480078012804D115A10DA000F0C1
:102B00004DFF08E015A10BA000F048FF03E016A15F
:102B100008A000F043FF00200149087010BD00002C
:102B20004200002040000020B5BCC1AACDD1C2E4C3
:102B3000000000005B5B352C25735D5D0D0A000015
:102B400041000020CAD6D6B8CDD1C2E400000000B2
:102B5000CAD6D6B8C1ACBDD300000000CAD6D6B81C
:102B6000D2ECB3A300000000B5BCC1AAD2ECB3A361
:102B70000000000070B505460C46012D05D101226C
:102B800040210C48FEF7E3FF05E025B90022402173
:102B90000848FEF7DCFF012C05D101228021054801
:102BA000FEF7D5FF05E024B9002280210148FEF799
:102BB000CEFF70BD000C014010B5364800680528F6
:102BC00065D2DFE800F0030D19235A00002101202F
:102BD000FFF7D0FF2F480068401C2E49086056E0E0
:102BE000FFF752FB00210846FFF7C4FF29480068A1
:102BF000401C284908604AE001210020FFF7BAFF85
:102C000024480068401C2349086040E0FFF71AFB95
:102C1000214A224B1B8852F82310214A1F4B1B8844
:102C200052F82300FFF73EFF1B4A1C4B1B8852F84B
:102C300023101B4A194B1B8852F82300FFF7B8FBDF
:102C40001549164A128801EB8200FFF769FE144904
:102C5000124A128801EB820000F07CF8002108463D
:102C6000FFF788FF00F02AFA01200E4908600948A2
:102C70000068401C0749086009E000210846FFF78A
:102C800079FF0020074908600249086000BF00BFC3
:102C900010BD0000200000202C08002010000020A3
:102CA000EC0100201400002070B505460C462448B5
:102CB0000078012823D123492846FDF789FE04D94D
:102CC00020492046FDF784FE15D800201E490860E3
:102CD0001E480068401C1D490860084600686428BA
:102CE0002CDB0020164908700120194908700020CB
:102CF0001649086022E00020144908601EE01149CE
:102D00002846FDF75BFE04D30E492046FDF756FE2C
:102D100011D20D480068401C0B4908600846006845
:102D200064280BDB0120064908700949087000205F
:102D30000549086002E000200349086070BD0000FA
:102D4000400000200000FA447800002074000020B9
:102D50004200002010B5044608480078302802D010
:102D6000312805D100E007E0204600F015F803E027
:102D700003A000F013FE00BF00BF10BD0C00002038
:102D80004552524F523AC2CBB2A8C6F7D1A1D4F1A4
:102D9000B4EDCEF30000000010B504460123224636
:102DA00021460948FDF7E2F94FF07E512068FDF712
:102DB000B6FB20602046FEF7CBF804482168FFF7F9
:102DC00015FB206010BD000004010020C40000209D
:102DD00014200749086003200649086000200649BE
:102DE0000860032005490860002005490860704715
:102DF000180000205C000020600000206C00002013
:102E00006400002010B529480078012803D1284823
:102E10000078012800D010BD264948682649FDF7F2
:102E2000CDFD1AD8234908682449FDF7C7FD14D8F9
:102E300023480068401C22490860084600680328AF
:102E400017DB002008601F480068012811D001200E
:102E50001C4908601C4908700BE0002018490860F4
:102E60001848006828B1002016490860012016495A
:102E7000087014480068B8B914480068401C134929
:102E80000860084600681E280EDB00200860104815
:102E90000068B0F5947F05DA0D480068401D0C49C4
:102EA000086001E0FFF794FF00BFB4E74000002096
:102EB000410000205400002000C0A8440080BB4412
:102EC000600000205C0000207000002064000020F2
:102ED000180000202DE9F0410D480068FDF73EFD87
:102EE00006460C4A0C4BFDF731FC044622460B46C5
:102EF0000AA000F053FD0D480068FDF72FFD0446C1
:102F000022460B460AA000F049FDBDE8F081000012
:102F100024000020E17A14AE47E1EA3F5B5B312CEC
:102F2000252E30665D5D0D0A00000000380000208F
:102F30005B5B322C252E30665D5D0D0A00000000C3
:102F400010B50446A1B20020FEF7C2FB012100200B
:102F5000FEF7CEFB05480068844203D0214604A05A
:102F600000F01CFD0148046010BD00008C00002032
:102F70005B5B332C25645D5D0D0A000010B10128F8
:102F800008D103E00021054A117004E00121034A41
:102F9000117000E000BF00BF704700001200002069
:102FA00001480078704700001200002010B5144856
:102FB000007880B91348007801281ED100201149FB
:102FC000087000224FF400510F48FEF7C0FD0FA01B
:102FD00000F0E4FC11E00A48007801280DD109480E
:102FE000007850B9012007490870012241030648C2
:102FF000FEF7ADFD0CA000F0D1FC0248007810BD3A
:10300000120000201C00002000100140494E464FD5
:10301000A3BAD1AAD1F5D0C5BAC5D5B9CABEBFAA7F
:10302000CABC0D0A00000000494E464FA3BAD1AAFF
:10303000D1F5D0C5BAC5D5B9CABECDA3D6B90D0A8A
:103040000000000010B50024FFF7B0FF012800D1F8
:1030500010BDFFF7B1FD1448007800B9F8E7134838
:10306000006800B9F4E712480088401C1049088045
:1030700008460088B0F5C87F13DB0E4800680128B9
:103080000FD1FFF781F9002009490880641C012C49
:1030900007DB09480078302802D131200649087042
:1030A000002400BFD4E700004100002014000020ED
:1030B000100000206C0000200C0000202DE9FC41D5
:1030C00012480078401C1149087008460078012811
:1030D0001ADB0F490F4A128851F82200FDF73EFC17
:1030E00004460D460C490B4A128851F82200FDF7A0
:1030F00035FC064632460B4608A0CDE9004500F0F7
:103100004DFC002001490870BDE8FC811F00002033
:103110002C08002010000020EC01002025662C2542
:10312000660D0A0070B500F03BF80446204600F03A
:1031300009F805462846FFF759FA0149086070BDAD
:10314000380000207FB505460020009001900290D5
:103150000390002410492846FDF730FC02D10E48A8
:1031600004B070BD002406E00C49601C51F820003A
:1031700041F82400641C032CF6DB0848C5600346B4
:103180000FCB8DE80F0004216846FDF785FF042171
:103190006846FDF7B1FFE3E7000080BF280000208C
:1031A0002DE9F04740F24C45104A11685068FDF790
:1031B000B0F980460D4A9168D068FDF7AAF9074634
:1031C0002846FDF7A4FB81464146FDF7A8F90646CF
:1031D0003946FDF7D6F9044600213846FDF7F8FBDD
:1031E00002D22046BDE8F0870148FBE76C270020AB
:1031F000000080BF7047000070B504460D461646BB
:103200002548005D4006000E2349085524B1012CD5
:103210000CD0022C1ED113E002212048FEF785FCC1
:103220001D49095D08431C49085514E004211B4849
:10323000FEF77BFC1849095D0843174908550AE069
:1032400001211748FEF771FC1349095D0843124933
:10325000085500E000BF00BF0F48005D1149095D3F
:10326000884208D11048005D012804D1B0470020F1
:103270000D4908550EE00848005D0A49095DC9433B
:10328000C9B2884206D10848005D18B9A847012094
:103290000549085570BD00000300002000100140E2
:1032A00000080140000000200600002010B50D4875
:1032B0000078401C0B4908700846007805280FDB91
:1032C00000200870084A0949FFF796FF084A094993
:1032D0000120FFF791FF084A08490220FFF78CFF01
:1032E00010BD0000090000208D1E0008EB1E000824
:1032F000CD1E0008ED1E0008E91E0008EF1E0008A4
:1033000010B50446E1B2054800F01DFB00BF4021A6
:10331000024800F04BFA0028F9D010BD00380140F7
:1033200010B500F001F810BD0CB500200190009020
:103330003348006840F480303149086000BF3048AD
:10334000006800F4003000900198401C0190009843
:1033500018B90198B0F5A06FF1D12948006800F4C0
:10336000003010B10120009001E000200090009892
:10337000012843D12348006840F01000214908602B
:103380000846006820F0030008600846006840F026
:10339000020008601A4840681949486008464068B9
:1033A00048600846406840F48060486008464068CD
:1033B00020F47C1048600846406840F4E8104860FB
:1033C0000846006840F08070086000BF0C48006844
:1033D00000F000700028F9D00948406820F0030090
:1033E000074948600846406840F00200486000BF56
:1033F0000348406800F00C000828F9D10CBD00001B
:10340000001002400020024070B505460C4604EB57
:10341000C40202EB04121C4B03EBC2021B4B53F819
:10342000243052F823101A4A52F82400FDF771F89C
:10343000174941F82400084650F824102846FDF7A3
:1034400016F8134941F8240004EBC40000EB041003
:103450000D4901EBC0000D4951F8241040F82150EE
:103460000A4850F82400401C322190FBF1F201FB85
:103470001200064941F82400054951F82400054985
:10348000FDF77FF870BD0000CC270020440000202D
:103490004C0000200000484210B500F00BF910BDB0
:1034A00010B51348006840F0010011490860084653
:1034B0004068104908400E494860084600680E49B7
:1034C00008400B4908600846006820F48020086026
:1034D0000846406820F4FE0048604FF41F008860F2
:1034E000FFF71EFF4FF000600449086010BD0000A8
:1034F000001002400000FFF8FFFFF6FE08ED00E0BC
:1035000010B50121880700F060F8012803D10121DE
:10351000800700F04BF807480088401C05490880E8
:1035200008460088022804DB0020088001200249A8
:10353000087010BD860000208400002010B5012115
:10354000064800F042F818B10121044800F02EF8B6
:103550000348008800F00AFA10BD00000004004093
:103560009000002010B501210D4800F02EF8012830
:1035700003D101210A4800F019F80A480088401CCC
:1035800000B2084908800846B0F90000B0F57A7F1B
:1035900004DB0020088001200349087010BD0000F2
:1035A000000C00408800002085000020CA430282F1
:1035B000704721B1028842F00102028004E00288D3
:1035C0004FF6FE731A400280704730B50246002065
:1035D00000230024158A05EA0103958905EA010400
:1035E00013B10CB1012000E0002030BD1AB1838975
:1035F0000B43838102E083898B43838170478288F8
:103600004FF68F731A40828082880A438280704707
:10361000002202881D4B98420ED01D4B98420BD0C1
:10362000B0F1804F08D01B4B984205D01A4B9842FE
:1036300002D01A4B984204D14FF68F731A404B8830
:103640001A43174B984207D0164B984204D04FF6B6
:10365000FF431A40CB881A4302808B8883850B88EE
:1036600003850A4B98420BD0094B984208D00E4B69
:10367000984205D00D4B984202D00D4B984201D193
:103680000B7A03860123838270470000002C0140DF
:10369000003401400004004000080040000C0040DD
:1036A0000010004000140040004001400044014070
:1036B000004801400448006820B103480068401EEB
:1036C0000149086070470000A800002008B50020EC
:1036D000009040F22551204800F075F858B125209F
:1036E000FEF76CFB1C4800F029F9C0B200909DF871
:1036F000000000F047F90821174800F057F80128AA
:1037000006D10821144800F02DF8134800F016F9EE
:1037100040F22771104800F056F8E0B140F22771EE
:103720000D4800F028F82520FEF748FB6846FEF714
:103730006DFD9DF80010084800F005F90748FEF7F8
:10374000D7FB40B1002006490870002240F22771E3
:10375000014800F062F808BD003801405C290020F3
:103760008A00002001F40072B2F5007F00D100BF92
:10377000CA430280704710B50022002340F66A1445
:10378000A14200D100BF0A1201249440A3B2DC433D
:10379000048010BD21B1828942F40052828104E08C
:1037A00082894DF6FF731A408281704702460020DD
:1037B000B1F5007F00D100BF13880B400BB1012091
:1037C00000E00020704770B5024600240023002569
:1037D000002040F66A16B14200D100BFC1F3421585
:1037E00001F01F03012606FA03F3012D02D1968989
:1037F000334006E0022D02D1168A334001E0968A5A
:1038000033400C12012606FA04F41688344013B132
:103810000CB1012000E0002070BDF0B5034600248B
:1038200000260025002040F66A17B94200D100BFEB
:103830001846C1F3421401F01F06012707FA06F5E6
:10384000012C01D10C3004E0022C01D1103000E039
:1038500014301AB107682F43076002E00768AF43CE
:103860000760F0BD2DE9F04786B005460E460024FE
:10387000A24600BFA1460027B08900B100BF2F4675
:103880002C8A4CF6FF700440F08804432C82AC89EB
:103890004EF6F3100440B08831890843718908431B
:1038A0000443AC81AC8A4FF6FF400440B089044326
:1038B000AC8201A8FEF786FB1F48874202D1DDF8E3
:1038C00010A001E0DDF80CA0A88900F4004040B190
:1038D0000AEBCA0000EB0A1031684900B0FBF1F8AE
:1038E00007E00AEBCA0000EB0A1031688900B0FB60
:1038F000F1F86420B8FBF0F004012009642101FB19
:103900001089A88900F4004040B1322000EBC900C2
:10391000B0FBF1F000F00700044308E0322000EBB8
:1039200009106421B0FBF1F000F00F0004432C817A
:1039300006B0BDE8F08700000038014001468888E5
:10394000C0F308007047C1F30802828070474FF44B
:103950001651016000218180C18001810C214181CB
:1039600000218181704700BFFEE7000031B50024CF
:10397000012269460248FEF70CF8C4B2204638BD61
:103980003C2A002031B50024012269460248FDF797
:10399000DCFFC4B2204638BD682900200FB4054BB7
:1039A00010B503A9044A029800F0DAF810BC5DF8DB
:1039B00014FB000067420008C000002002E008C8B5
:1039C000121F08C1002AFAD170477047002001E099
:1039D00001C1121F002AFBD1704700002DE9FF5FD3
:1039E00082B00021DDE90430020DDDF840B0034370
:1039F00018D044F61050A2F2FF3242431514119829
:103A000001281FD0A5EB0B00401C5FEA000A4FF015
:103A100000064E4FDFF83891B046504615D5CAF132
:103A2000000413E0119801244AA3012801D16FEA90
:103A30000B010298119AC0E90031C0E9024206B0B8
:103A4000BDE8F09FCBF10000DFE704460021404ACB
:103A5000491842EB0450CDE9001012E0E00707D00E
:103A600032463B4640464946FCF770FE8046894652
:103A700032463B4610461946FCF768FE06460F469E
:103A80006410002CEAD1DDE90401DDE90023BAF17C
:103A9000000F06DAFCF75AFE42464B46FCF756FE8C
:103AA00005E0FCF7C5FE42464B46FCF7C1FE044666
:103AB0000E460022284BFDF7A9F803D84FF0FF303F
:103AC000014607E00022254B20463146FCF797FDD2
:103AD000FDF784F8102409E0002C0ADB0A220023F9
:103AE000FCF796FF039B30321A55641E50EA010220
:103AF000F2D1641C039AC4F111031444119A012AEF
:103B000003D0012208430DD10AE0084304D000206D
:103B10004FF0110B119072E7A3EB0B056D1E0DE03A
:103B20005B4504DD4FF0000205F1010504E003DA16
:103B30004FF00002A5F10105002AECD0029811997E
:103B4000C0E90231C0E9004579E7000000001440F7
:103B50000000F03F300000000000F0430000E03FB4
:103B60002DE9FF4F95B09A46884606460025EEE1BE
:103B7000252877D100242746F94A0121039400E043
:103B8000044316F8013F203B01FA03F01042F7D13D
:103B900030782A2811D06FF02F033078A0F130024E
:103BA000092A16D8039A44F0020402EB820203EBBE
:103BB00042021044761C0390EFE758F8042B03925E
:103BC000002A03DA504244F40054039044F0020403
:103BD000761C30782E2816D116F8010F44F0040414
:103BE0002A280DD06FF02F023078A0F13003092B76
:103BF00009D807EB870302EB4303C718761CF3E7EA
:103C000058F8047B761C30786C280FD006DC4C28E2
:103C100017D068280DD06A2814D104E0742810D079
:103C20007A280FD10DE044F400140AE044F4801423
:103C300001E044F440147278824202D104F5801409
:103C4000761C761C307866280BD013DC582877D089
:103C500009DC002875D04528F6D04628F4D047283E
:103C60001AD193E118E0632835D0642879D065280B
:103C700012D18BE1702873D008DC6728F1D0692855
:103C80006FD06E280DD06F2806D1ACE073282CD0F1
:103C9000752874D0782853D05246179990476D1CD8
:103CA00054E1C4F30250022809D003280DD0D8F8FB
:103CB000001004280DD00D6008F1040846E1D8F882
:103CC0000010EA17C1E90052F6E7D8F800100D809D
:103CD000F2E70D70F0E718F8041B8DF800100020D3
:103CE0008DF80100EB46012003E058F804BB4FF0CB
:103CF000FF3061074FF0000102D40DE009F101012E
:103D00008946B9420FDA8145F8DB1BF80910002912
:103D1000F4D108E009F1010189468142FADB1BF880
:103D200009100029F6D103985346A0EB0907214654
:103D30003846179A00F080FA284400EB090507E09E
:103D400044E008E10DE01BF8010B5246179990473B
:103D5000B9F10109F7D2534621463846179AF2E0E5
:103D600039E00A21C4F302524FF0000B0091022AFD
:103D700006D058F8040BC117032A09D00AE023E043
:103D800008F1070020F00702F2E80201904605E082
:103D900000B2C117042A01D140B2C117002906DAC6
:103DA0000A460021404261EB02012D2202E0220579
:103DB00004D52B228DF80420012203E0E20701D074
:103DC0002022F7E7914657E00A2100E010214FF04A
:103DD000000B00910BE010214FF0000B44F00404A5
:103DE0000827009103E008204FF0000B0090C4F377
:103DF0000252022A05D058F8040B0021032A08D0E9
:103E000008E008F1070020F00702F2E802019046FE
:103E100003E080B2042A00D1C0B24FF000092207AB
:103E20002AD53278702A07D0DDF800C08CF0100C4B
:103E30005CEA0B0C05D00EE040228DF80420012234
:103E400008E050EA010306D030238DF804308DF8E5
:103E5000052002229146009B83F0080353EA0B03DE
:103E60000AD150EA010201D1620705D530228DF84E
:103E700004204FF001097F1E3278582A04D039A25D
:103E80000C920CAA02920BE03BA2F9E75B46009A67
:103E9000FCF7BEFD0C9B9B5C029A521E02921370B3
:103EA00050EA0102F2D1029804A9081A00F1200B8D
:103EB000600702D524F4803400E001275F4502DD6D
:103EC000A7EB0B0000E0002000EB0B010090039833
:103ED0004944401A0390E00306D453462146179AFA
:103EE000039800F0A9F90544002706E001A852460E
:103EF000C05D179990476D1C7F1C4F45F6DBE003B2
:103F00000CD553462146179A039800F095F90544BD
:103F100004E030205246179990476D1C0099481EC6
:103F200000900029F5DC08E00298029952460078DA
:103F3000491C0291179990476D1CBBF10001ABF130
:103F4000010BF1DC5BE100F065F90544761C30788B
:103F500000287FF40DAE19B02846BDE8F08F0000B0
:103F6000092801003031323334353637383961624F
:103F70006364656600000000303132333435363713
:103F8000383941424344454600000000600700D4F0
:103F9000062708F1070020F00700F0E8022380461A
:103FA00003F0004C5FEA0C0001D097A009E0200567
:103FB00001D596A005E0E00701D095A001E0AFF2A1
:103FC0004C001390307823F0004365280CD006DCB9
:103FD000452809D046281DD047287FD13BE06628D8
:103FE00018D067287AD136E00021112F01DB11208B
:103FF00000E0781CCDE9000104A90CA8FFF7EEFC55
:10400000DDE90D010C9A4FF0000B07F10109109248
:1040100000914EE04FF000400097CDE9011004A957
:104020000CA8FFF7DBFCDDE90D020C9B0F994FF0AC
:10403000000B91461093009211B9791C00EB010915
:10404000B7EB090003D4C0F1FF3B07F10109A9EB6D
:104050000700019042E0012F00DA01270021112F13
:1040600001DD112000E03846CDE9000104A90CA8CB
:10407000FFF7B4FCDDE90D010C9A00914FF0000B45
:10408000B946109221070FD4009A4A4503DA9146A7
:1040900001E0A9F10109B9F1010F05DD109AA9F1BB
:1040A0000101515C3029F4D0B84202DA10F1040F5A
:1040B00003DA0121CDE9011010E0002803DC83447C
:1040C000A9EB000102E0411C494500DD8946A0EB57
:1040D0000B00401C01904FF000400290200705D4D7
:1040E0000198484502DB4FF0FF30019000208DF829
:1040F0004B0002980DF14B07B0F1004F25D0022084
:104100000C902B200D90029800280CDA404202906F
:104110002D200D9007E00A210298FCF763FC303156
:10412000029007F8011D0C99481E0C900029F2DC42
:1041300002980028EFD1791E0D980870307800F0B1
:10414000200040F0450007F8020D11A8C01BC01D5B
:1041500002901398007800B1012000EB090101984A
:1041600001EBE071029801440398401A401E03904D
:10417000E00306D453462146179A039800F05CF8F2
:1041800005441398007818B15246179990476D1C52
:10419000E00323D553462146179A039800F04CF8C4
:1041A00005441BE0BBF1000F07DB0098584504DD18
:1041B0001098179910F80B0001E01799302052461B
:1041C000904701980BF1010B401E05F1010501908C
:1041D00004D12E205246179990476D1CB9F1000169
:1041E000A9F10109DEDC05E017F8010B5246179929
:1041F00090476D1C0299481E02900029F4DC53463A
:104200002146179A03989EE62D0000002B0000001F
:10421000200000002DE9F041044600251E46174607
:10422000880404D405E039462020B0476D1C641E84
:10423000F9D52846BDE8F0812DE9F0410446002576
:104240001E469046C80301D5302700E02027880489
:1042500004D505E041463846B0476D1C641EF9D5CB
:104260002846BDE8F08170B504460D46E0B2FFF780
:1042700047F8204670BD0000FDF7FDFCFDF7B4FCDB
:1042800004A0FFF78BFB03E0FDF7EEFDFDF7E5FD76
:10429000FAE70000496E69742053797374656D20E4
:1042A000686173206265656E2066696E6973686512
:1042B000642E0D0A000000000200000072006B3C3A
:1042C0007200EB3C72006B3CF468E23FEE8153BF3E
:1042D0003C48513C3C48D13C3C48513C77A1C93F0B
:1042E000715720BF8002000063000000A802000098
:1042F00062000000D002000061000000EE02000039
:10430000600000000C0300005F0000002A030000B2
:104310005E000000480300005D0000005C03000038
:104320005C000000700300005B0000008E030000D2
:104330005A000000AC03000059000000CA0300004E
:1043400058000000E80300005700000006040000C9
:10435000560000002404000055000000380400004E
:10436000540000004C0400005300000060040000F2
:10437000520000007E040000510000009204000082
:1043800050000000B00400004F000000AC430008E3
:1043900000000020C4000000BC3900087044000880
:1043A000C40000209C2D0000CC3900080000000053
:1043B00000000000000000003000000000000100CC
:1043C00000000000000000000100000000000000EC
:1043D000000000000000BE420000000000000000DD
:1043E00000000000000000000000000000000000CD
:1043F00000000000000000000000000000000000BD
:1044000000000000000000000300000000000000A9
:104410000000000000000000030000000000000099
:10442000000000000000000000000000000000008C
:10443000000000000000000000000000000000007C
:104440000000010203040102030406070809020434
:10445000060800000000000000A24A04000000005E
:104460000000000001020304060708090000000024
:0400000508000131BD
:00000001FF
