:020000040800F2
:10000000802C002049010008D51B00089119000828
:10001000D11B00083D0F00085F2E00080000000003
:100020000000000000000000000000007F27000822
:100030002517000800000000751C00089129000821
:100040006301000863010008630100086301000800
:1000500063010008630100086301000863010008F0
:1000600063010008630100086301000863010008E0
:1000700063010008630100086301000863010008D0
:1000800063010008630100086301000863010008C0
:1000900063010008630100086301000863010008B0
:1000A00063010008630100086301000863010008A0
:1000B000F9290008352A00086301000863010008D7
:1000C0006301000863010008630100086301000880
:1000D00063010008C52B00086301000863010008E4
:1000E0006301000863010008630100086301000860
:1000F0006301000863010008630100086301000850
:1001000063010008630100085D2A0008630100081C
:10011000630100086301000863010008630100082F
:10012000630100086301000863010008630100081F
:10013000DFF810D000F078FD004800477137000864
:10014000AFF30080802C0020064880470648004717
:10015000FEE7FEE7FEE7FEE7FEE7FEE7FEE7FEE777
:10016000FEE7FEE799290008310100082DE9FF4F5D
:1001700095B00C464168009181680F91006813901A
:100180001898179D800814900F98006809900F9890
:1001900050F8041F089150F8041F079150F8041FED
:1001A0000B91416808300A910F900098D0E9006BDC
:1001B000D0E90289DDF850A0BAF1000F7DD000BF70
:1001C00054F8040B069049460A9800F096F90C90F2
:1001D00041460B9800F091F903905946079800F0BA
:1001E0008CF907463146089800F087F98146069950
:1001F000099800F082F9494600F027F9394600F0E5
:1002000024F9039900F021F90C9900F01EF945F842
:10021000040B074654F804BB41460A9800F06DF9F8
:100220000C9039460B9800F068F9804631460798E3
:1002300000F063F981460699089800F05EF90646D9
:100240005946099800F059F9314600F0FEF8494640
:1002500000F0FBF8414600F0F8F80C9900F0F5F8D2
:1002600045F8040B804654F8046B39460A9800F0B0
:1002700044F90E9041460B9800F03FF90C90DDE9EF
:10028000061000F03AF981465946089800F035F911
:1002900007463146099800F030F9394600F0D5F8A4
:1002A000494600F0D2F80C9900F0CFF80E9900F012
:1002B000CCF8814645F8040B00E02EE054F8047BAE
:1002C00041460A9800F019F90C9049460B9800F045
:1002D00014F90E905946079800F00FF983463146FD
:1002E000089800F00AF980463946099800F005F9A7
:1002F000414600F0AAF8594600F0A7F80E9900F020
:10030000A4F80C9900F0A1F8B346804645F8040B18
:100310003E46BAF1010A7FF453AF189810F0030774
:1003200032D0B7F1004F44D2002F2DDD54F804AB8A
:1003300049460A9800F0E1F80C9041460B9800F00D
:10034000DCF803905946079800F0D7F88346314609
:10035000089800F0D2F881465146099800F0CDF88F
:10036000494600F072F8594600F06FF8039900F022
:100370006CF80C9900F069F8B346C14645F8040BD7
:10038000564680467F1ED1D100980660009840F8FE
:1003900004BF40F8048FC0F8049008300090139810
:1003A000179C401E254613907FF4EEAE19B0BDE8B1
:1003B000F08F54F804AB49460A9800F09EF80C9070
:1003C00041460B9800F099F803905946079800F0C1
:1003D00094F883463146089800F08FF881465146DC
:1003E000099800F08AF8494600F02FF8594600F0C5
:1003F0002CF8039900F029F80C9900F026F8B34680
:10040000C14645F8040B564680467F1ED1D1BBE756
:1004100070B58260016004461D460901184600F06F
:1004200009F8656070BDD2B201E000F8012B491EE9
:10043000FBD270470022F6E710B513460A46044681
:100440001946FFF7F0FF204610BDF0B480EA010224
:10045000D40F4200B2EB410F02D2024608461146C9
:100460004A0042D0C30DDDB2C1F3C752AD1A202DF0
:1004700035DAC1F3160141F4000204B15242C5F16C
:10048000200602FA06F12A411044B3EBD05F23D0D4
:10049000C4B1012DA0EBC35009DCF0BC4FF0004209
:1004A00002EAC352DBB200F5000000F002BB4000DC
:1004B00000F1807000EBC350A0F1807040EAD17071
:1004C000490009E0490841EAC071A0EBC35000F5BA
:1004D0000000400800EBC350F0BC00F0E1BA6142FC
:1004E000012202EB4101001BF6E7F0BC704781F0EE
:1004F0000041AAE780F00040A7E780EA010210B5BA
:1005000002F00043400022D04A001FD0010E01EB50
:100510001261C0F35600C2F3560240F4000042F4E8
:100520000002A0FB022000047F39140400D0401C0C
:1005300050EA124001D44000491EC2B20C0604EB3E
:10054000D010401C4008802A02D003E0002010BDDB
:1005500020F00100002900DA0020184310BD30B45B
:1005600080EA010202F0004530F0004221F0004034
:1005700013D090B1C30DD40DC2F31601C0F3160011
:10058000E41A41F4000140F400027D34914201D3A9
:10059000641C00E04900002C02DA30BC00207047E7
:1005A0004FF400000023914201D3891A034340080D
:1005B0004FEA4101F7D151B1914202D14FF00041D0
:1005C00005E002D24FF0010101E06FF0010103EB01
:1005D000C450284430BC00F063BA2DE9FE4F804679
:1005E00081EA0300C00F0C46009021F0004123F087
:1005F0000045B8EB0200A94105D24046214690468D
:100600001C460B46024623F00040104347D0270DFE
:10061000C7F30A00C3F30A510290401A0190402820
:100620006BDAC3F3130040F4801B0098924620B1AC
:100630000023D2EB030A63EB0B0B01985946C0F180
:100640004002504600F00BFA06460D465046594609
:10065000019A00F013FA10EB08006141002487EAC8
:10066000115284EAE7731A4340D0009A62B3019AA8
:10067000012A4FEA075215DC001B61EB02014FF023
:10068000004202EA0752CDE90042001C41F5801108
:1006900032462B4600F04AFA03B0BDE8F08F4046E0
:1006A0002146F9E7001B61EB0201001C41F58013B4
:1006B00000185B412018A2F5001747EB030140EA40
:1006C000D570B6196D4111E06D084FEA360645EA5E
:1006D000C0754FEA0752001B61EB0201001C41F597
:1006E000801149084FEA30000019514132462B462B
:1006F00003B0BDE8F04F00F00ABA009801224000B4
:100700000023D0EB020263EBE073009821464FEA2E
:10071000E074B8EB000061EB0401E9E783F000430B
:100720005BE781F0004158E72DE9FE4F81EA0304C1
:1007300004F0004421F0004100944FF0000B23F03E
:10074000004350EA01045ED052EA03045BD0C3F3D5
:100750000A54C1F30A552C44A4F2F3340194A0FBCB
:100760000254C1F3130141F48011C3F3130343F4A2
:10077000801301FB024400FB034E840A970A44EAFB
:10078000815447EA8357A4FB076802958D0A05FB4D
:1007900007854FEA932C04FB0C542705029D4FEA72
:1007A000065847EA1637B5EB08056EEB070C870EBF
:1007B000920E47EA811742EA8312A7FB0201B6EBC9
:1007C0000B0164EB00042B0D43EA0C335E1844EB81
:1007D0001C50DA465146E7FB0201C5F313044FEA09
:1007E0000B3343EA14534FEA0432019C43EA0603F5
:1007F000A4F10C040294009CCDE900B400F096F939
:1008000003B0BDE8F08F00200146F9E72DE9F04D77
:1008100081EA030404F0004B21F0004514464FF038
:10082000000A23F0004150EA050220D054EA0102F8
:100830001DD0C5F30A570246C5F31303C1F31300D5
:10084000C1F30A5640F4801543F48013A7EB060861
:10085000101BD64608F2FD3873EB050002D308F1F1
:10086000010801E092185B41B8F1000F03DA0020A3
:100870000146BDE8F08D00204FF480110646844605
:100880000EE0171B73EB050705D3121B63EB050383
:1008900006434CEA010C49084FEA300092185B41CC
:1008A00050EA0107EDD152EA030012D082EA0400B7
:1008B00083EA0501084305D0101BAB4106D2012293
:1008C000002306E000224FF0004302E06FF0010237
:1008D00053101AEB06004CEB085110EB0A0041EBE9
:1008E0000B01BDE8F04D00F012B9C10F80EAE070D5
:1008F0000844CA079623002100F0DBB80EB540F289
:10090000334102910021CDE900110A460B4600F067
:100910000DF903B000BD00F0004220F00040C10D11
:10092000C0F3160040F400007F2901DA0020704770
:10093000962903DCC1F19601C84001E09639884050
:10094000002AF4D04042704700F0004230F00040EE
:100950000AD0C10D01F56071C0F3160042EA0151E1
:10096000C20840071143704700200146704701F05C
:10097000004330B421F0004150EA010206D00A0DD4
:10098000A2F56072C1F31301002A02DC30BC002022
:100990007047440F44EAC104C100E01830BC00EBCA
:1009A000C25000F07DB80000002801DBC0F100401B
:1009B000002901DBC1F1004181427047002801DBC1
:1009C000C0F10040002901DBC1F1004188427047BD
:1009D00030B50B46014600202022012409E021FA0F
:1009E00002F59D4205D303FA02F5491B04FA02F50C
:1009F0002844151EA2F10102F1DC30BD2DE9F05FA3
:100A00000546002092469B4688460646814640247D
:100A10001BE0284641464746224600F017F9534658
:100A20005A46C01A914110D311461846224600F08A
:100A300016F82D1A67EB01084F46224601200021C7
:100A400000F00DF817EB00094E41201EA4F101043F
:100A5000DFDC484631462A464346BDE8F09F202A5F
:100A600004DB203A00FA02F1002070479140C2F105
:100A7000200320FA03F3194390407047202A06DB35
:100A8000CB17203A41FA02F043EAE07306E041FA5C
:100A900002F3D040C2F1200291400843194670474A
:100AA0000029A8BF7047401C490008BF20F0010082
:100AB000704710B4B0FA80FC00FA0CF050EA010460
:100AC00004BF10BC704749B1CCF1200421FA04F4F2
:100AD00011FA0CF118BF012121430843A3EB0C01CB
:100AE000CB1D4FEA00614FEA102042BF002010BC2E
:100AF000704700EBC35010440029A4BF10BC7047DE
:100B0000401C490008BF20F0010010BC704710B520
:100B1000141E73F1000408DA401C41F10001921820
:100B20005B411A4301D120F0010010BD2DE9F04DC9
:100B300092469B4611B1B1FA81F202E0B0FA80F21E
:100B400020329046FFF78BFF04460F4640EA0A002A
:100B500041EA0B0153465A46084313D0114653EA63
:100B6000010019D0C8F14002504600F06FF8054668
:100B70000E46504659464246FFF771FF084305D0DE
:100B8000012004E020463946BDE8F08D00200543F1
:100B900046EAE0762C4337430A986305E40AA0EB63
:100BA00008000022FD0A44EA47540A3002D500201A
:100BB0000146E9E7010510196941DDE90845001919
:100BC0006941BDE8F04DA2E7C1F30A52C1F3130138
:100BD00040F2FF3341F480119A4202DA00200146CC
:100BE000704740F233439A42A2F2334202DC52424F
:100BF00000F02CB8FFF733BF30B5041E71F10004CC
:100C000004DB4FF00044404264EB0101141E73F119
:100C1000000405DB1C464FF00043524263EB040323
:100C2000994208BF904230BD064C074D06E0E0688F
:100C300040F0010394E8070098471034AC42F6D323
:100C4000FFF77AFAA0390008C0390008202A04DB2F
:100C5000203A21FA02F00021704721FA02F3D04035
:100C6000C2F12002914008431946704721B18268C1
:100C700042F00102826003E0826822F00102826099
:100C8000704721B1826842F48072826003E082681A
:100C900022F480728260704721B1826842F480122F
:100CA000826003E0826822F480128260704701460D
:100CB00000208A6802F004020AB1012000E000204E
:100CC0007047014600208A6802F008020AB101203C
:100CD00000E000207047000030B5024600200023ED
:100CE00050680F4C20400D790C6844EA05242043DD
:100CF000506090680B4C2040D1E902542C434D7950
:100D000044EA450420439060D06A20F470000C7CD3
:100D1000641EE4B2234340EA0350D06230BD0000B9
:100D2000FFFEF0FFFDF7F1FFF0B504460D46002091
:100D30000021092D11DDE068A5F10A0606EB460742
:100D4000072606FA07F18843A5F10A0606EB4606D0
:100D500003FA06F10843E0600CE0206905EB450763
:100D6000072606FA07F1884305EB450603FA06F164
:100D700008432061072A0FDA606B561E06EB8607D0
:100D80001F2606FA07F18843561E06EB860605FA6B
:100D900006F10843606322E00D2A0FDA206BD61FAC
:100DA00006EB86071F2606FA07F18843D61F06EBD7
:100DB000860605FA06F10843206310E0E06AA2F116
:100DC0000D0606EB86071F2606FA07F18843A2F1F7
:100DD0000D0606EB860605FA06F10843E062F0BD53
:100DE000816841F0080181607047816841F0040129
:100DF000816070472DE9F05F04464FF07E50454911
:100E00000860C00148604FF07E5088604249086029
:100E100042484860424888604FF07E50414908602F
:100E2000C00148604FF07E5088603F4908603F48ED
:100E300048603F4888603F49206808600A4651681A
:100E4000344A5068FFF759FB82463B4A9168324A60
:100E50009068FFF752FB83462F48406880F00049B6
:100E6000354841684846FFF748FB80465946FFF73A
:100E70003EFB07462F4801683846FFF7E6FA06466C
:100E80005146FFF7E2FA05462A4881682846FFF7EF
:100E9000DCFA29490860274A5168224A5068FFF75E
:100EA0002CFB8246244A91681F4A9068FFF725FB75
:100EB00083461D48406880F000491F484168484605
:100EC000FFF71BFB80465946FFF711FB0746194801
:100ED00001683846FFF7B9FA06465146FFF7B5FAFA
:100EE0000546144881682846FFF7AFFA12490860A2
:100EF0000846406888600846006848600D484068B9
:100F00000C4988600846006848600B48006820600B
:100F1000BDE8F09F000100200C01002035C1FEBF9C
:100F20002A8C7D3F1801002024010020C70AFDBF44
:100F3000C81F7A3F300100203C01002000BFFEE7BF
:100F400000200149087070472D0000200020014951
:100F5000087070472C00002000B587B04FF40040A7
:100F600000F0F0FE0121480200F018FF01211020DE
:100F700000F014FF2020ADF8180000208DF81B00B1
:100F800006A91E4800F056FC0020019001208DF8B3
:100F9000080000208DF809004FF400200390002085
:100FA000049001208DF8140001A91548FFF794FE64
:100FB000072301220F211248FFF7B6FE0121104836
:100FC000FFF75FFE01210E48FFF766FE01210C4886
:100FD000FFF74CFE0A48FFF703FF00BF0848FFF782
:100FE00070FE0028FAD10648FFF7FFFE00BF044854
:100FF000FFF75DFE0028FAD107B000BD00100140E8
:101000000024014000B585B00121042000F0C6FE97
:101010000121480700F0B2FE1020ADF810000320B7
:101020008DF8120000208DF8130004A90A4800F082
:1010300001FC3C2000900020019002900390694642
:1010400000F01AFA0021084600F030FA01210020D1
:1010500000F0FEF905B000BD0008014000B58BB0FE
:101060000121084600F07AFE114800F051FA1148BB
:101070000090114801900020029001200390002070
:10108000049080200590400006908000079020206A
:101090000890C001099000200A906946044800F0B9
:1010A000DDFA0121024800F027FA0BB000BD000074
:1010B000080002404C2401403400002008B5012102
:1010C000042000F06BFE0121102000F067FE0220DA
:1010D000ADF8000048208DF8030069460B4800F089
:1010E000A9FB0420ADF8000048208DF803006946F4
:1010F000064800F09FFB0120ADF8000048208DF865
:1011000003006946024800F095FB08BD001001404D
:101110000008014008B50121102000F03FFE10201A
:10112000ADF8000003208DF8020010208DF80300B8
:1011300069460D4800F07EFB012210210A4800F0AC
:1011400016FC2020ADF8000003208DF802001020CE
:101150008DF803006946044800F06CFB0022202152
:10116000014800F004FC08BD0010014010B54FF428
:10117000A06000F075FD10BD10B500F01FFE4FF42B
:10118000803000F0DDFE00F039FF0446012C24D150
:10119000102000F013FB022000F01EFB002000F0E6
:1011A000C3FE002000F0FEFEA00200F0EFFE4FF4B0
:1011B000E011200400F008FF012000F0FFFE00BF56
:1011C000392000F08BFE0028FAD0022000F00AFF40
:1011D00000BF00F0A1FE0828FBD110BD08B5012119
:1011E000102000F0DBFD0121082000F0D7FD0121D7
:1011F000082000F0D3FD4FF40050ADF800000320AC
:101200008DF8020010208DF803006946154800F0A3
:1012100011FB0420ADF8000003208DF80200282007
:101220008DF803006946104800F004FB4020ADF83B
:10123000000003208DF8020010208DF8030069469D
:10124000094800F0F7FA8020ADF8000003208DF87F
:10125000020010208DF803006946034800F0EAFA06
:1012600008BD000000100140000C01407FB505469C
:101270000C460121084600F081FDADF80850ADF89C
:1012800004400020ADF80A00ADF8060001A94FF0B7
:10129000804001F039FC01221146900701F022FC48
:1012A0001C208DF8000000208DF8010003208DF82F
:1012B000020001208DF80300684600F099FC01212E
:1012C000880701F0F2FB7FBD7FB505460C46012182
:1012D000022000F053FDADF80850ADF804400020A6
:1012E000ADF80A00ADF8060001A90F4801F00CFCAA
:1012F00020210D4801F0FFFB012211460A4801F0B0
:10130000F1FB1D208DF8000001208DF801008DF803
:1013100002008DF80300684600F06AFC01210248D3
:1013200001F0C3FB7FBD0000000400407FB505460F
:101330000C460121082000F021FDADF80850ADF861
:1013400004400020ADF80A00ADF8060001A90E48DF
:1013500001F0DAFB012211460B4801F0C3FB3220F9
:101360008DF8000000208DF8010003208DF80200A8
:1013700001208DF80300684600F03AFC0121024884
:1013800001F093FB7FBD0000000C004010B586B05B
:1013900004460121880300F001FD0121042000F032
:1013A000FDFC4FF40070ADF8140018208DF8170004
:1013B00003208DF8160005A9224800F03BFA4FF4EF
:1013C0008060ADF8140004208DF8170005A91D48B1
:1013D00000F030FA01A801F036FD01940020ADF8CC
:1013E0000800ADF80A00ADF80C000C20ADF80E00B6
:1013F0000020ADF8100001A9134801F0AFFC252032
:101400008DF8000001208DF801008DF802008DF8A4
:101410000300684600F0ECFB012240F225510A4827
:1014200001F077FC012240F22771074801F071FCBE
:101430000121054801F02AFC00200449087006B08B
:1014400010BD0000000801400038014032000020BB
:1014500039B1084A1268012383401A43054B1A60C8
:1014600006E0044A1268012383409A43014B1A6044
:10147000704700000074004030B5002200230A4C81
:10148000226840F6FE748440A243D1E900452C4313
:101490008D682C43CD6844EA050303FA00F4224327
:1014A000014C226030BD00000074004008B50022ED
:1014B0000092054A009200F10802009B1A44009233
:1014C000009A116008BD00000074004010B541B1E1
:1014D000084A126804090123A3401A43054B1A6005
:1014E00007E0044A126804090123A3409A43014B10
:1014F0001A6010BD0474004021B1026842F001027C
:10150000026004E002684FF6FE731A400260704702
:1015100001684FF6FE7211400160002101604160D8
:101520008160C1604B49884208D14A4908394968FD
:1015300041F00F01474A083A51608AE045491431A9
:10154000884208D143490839496841F0F001414ACD
:10155000083A51607DE03F492831884208D13D4931
:101560000839496841F470613A4A083A516070E0BC
:1015700038493C31884208D136490839496841F434
:101580007041344A083A516063E032495031884230
:1015900008D130490839496841F470212D4A083A88
:1015A000516056E02B496431884208D129490839F5
:1015B000496841F47001274A083A516049E02549D9
:1015C0007831884208D123490839496841F070616F
:1015D000204A083A51603CE01F49884206D1011F69
:1015E000096841F00F01021F116032E01A491431FD
:1015F000884208D11849091F096841F0F001164ACC
:10160000121F116025E014492831884208D112497F
:10161000091F096841F470610F4A121F116018E038
:101620000D493C31884208D10B49091F096841F432
:101630007041094A121F11600BE00749503188427E
:1016400007D10549091F096841F47021024A121F98
:1016500011607047080002400804024010B50022E3
:10166000026847F6F0739A430C6A8B6823430C694F
:1016700023434C6923438C692343CC6923434C6A3D
:1016800023438C6A23431A430260CB6843600B6890
:1016900083604B68C36010BD30B50346002016E080
:1016A000B3F900509C68645D0C541C88641C24B21F
:1016B0001C80B3F90040B3F90450AC4201DB0024B4
:1016C0001C80441C20B2DC88641E24B2DC80B3F988
:1016D0000640002C01DD9042E2DB30BD30B5034610
:1016E000002018E0B3F900509C6834F8154021F848
:1016F00010401C88641C24B21C80B3F90040B3F96C
:101700000450AC4201DB00241C80441C20B2DC8865
:10171000641E24B2DC80B3F90640002C01DD904247
:10172000E0DB30BD704770B50346002016E00C5C6E
:10173000B3F902609D68AC555C88641C24B25C807F
:10174000B3F90240B3F90450AC4201DB00245C80E1
:10175000441C20B2DC88641C24B2DC80B3F906404F
:10176000B3F90450AC4201DA9042E0DB70BD70B5D1
:101770000346002018E031F81040B3F902609D687C
:1017800025F816405C88641C24B25C80B3F90240E2
:10179000B3F90450AC4201DB00245C80441C20B24D
:1017A000DC88641C24B2DC80B3F90640B3F9045031
:1017B000AC4201DA9042DEDB70BD000005490968E9
:1017C00021F01001034A11601146096801431160BC
:1017D000704700000020024001460020034A1068C4
:1017E00000F03800084310607047000000200240FD
:1017F00070B504460D46A26954F82210E069FEF760
:1018000076FEE061A06944F820502946E069FEF7C1
:101810001CFEE061A069401CA061A069062801DBF4
:101820000020A0610249E069FEF799FE70BD00004A
:101830000000C0402DE9F0410246002500260020AE
:1018400000230024002791F803C00CF00F0591F845
:1018500003C00CF0100CBCF1000F03D091F802C0D3
:101860004CEA050591F800C0BCF1000F31D01468B6
:1018700000202BE04FF0010C0CFA00F3B1F800C08F
:101880000CEA03069E4220D183004FF00F0C0CFAA5
:1018900003F7BC4305FA03FC4CEA040491F803C0C7
:1018A000BCF1280F06D14FF0010C0CFA00FCC2F875
:1018B00014C00AE091F803C0BCF1480F05D14FF005
:1018C000010C0CFA00FCC2F810C0401C0828D1D34F
:1018D0001460B1F800C0BCF1FF0F34DD5468002083
:1018E0002EE000F1080C4FF0010808FA0CF3B1F8F3
:1018F00000C00CEA03069E4221D183004FF00F0C7A
:101900000CFA03F7BC4305FA03FC4CEA040491F813
:1019100003C0BCF1280F05D100F1080C08FA0CF83F
:10192000C2F8148091F803C0BCF1480F07D100F150
:10193000080C4FF0010808FA0CF8C2F81080401C9F
:101940000828CED35460BDE8F08102460020936899
:101950000B400BB1012000E0002070470246002040
:10196000D3680B400BB1012000E0002070470AB1A2
:10197000016100E041617047014800787047000054
:101980002D00002001480078704700002C00002046
:1019900000BFFEE710B540F2CF21C720FFF794FC4F
:1019A000FFF7DAFAFFF75AFB64220249024800F017
:1019B000B5F810BDB4270020A827002010B5FFF708
:1019C00021FB10BD10B5084B084A01210848FEF75D
:1019D0001FFD084800F09CFB074B084A05210848FA
:1019E000FEF716FD10BD0000940000202439000809
:1019F0008800002068000020B00000203C3900086A
:101A0000A400002010B500F0C7FF00F03EF800F081
:101A100025F84FF4E13000F094F800F073F800F08E
:101A200019F800F03BF8FFF7C9FFFFF7B3FF00F02C
:101A300019F800F003F800F0F7FC10BD10B5FFF73F
:101A40003DFB0020024908704870887010BD0000FE
:101A50000000002010B5FFF75DFB10BD10B5FFF7CB
:101A600085FB10BD704730B50B46002404804480D0
:101A70008280C4808360002104E0002485686C5467
:101A80004C1C21B29142F8DB30BD10B5FFF774FB5E
:101A900010BD10B5FFF796FF10BD000030B5164819
:101AA00000684FF47A72B0FBF2F1B1F1807F01D39C
:101AB00001201DE021F07F40401E4FF0E0225061E8
:101AC00050170F22002807DA13071D0E0B4B00F0EA
:101AD0000F04241F1D5503E013071C0E084B1C5454
:101AE00000BF00204FF0E02290610720106100202D
:101AF00008B100BFFEE730BD5000002018ED00E047
:101B000000E400E010B5472140F2E730FFF7AEFBFC
:101B1000472140F2E730FFF709FC10BD30B50B4616
:101B20000024048044808280C4808360002105E01A
:101B30000024856825F811404C1C21B29142F7DB46
:101B400030BD10B5044600F005F82046FFF71EFC36
:101B500010BD000010B5002406E00020094908551A
:101B600009490855601C04B2642CF6DB642205495F
:101B70000648FFF778FF642203490548FFF773FF23
:101B800010BD0000E026002044270020C8260020C9
:101B9000D426002070B504460B480088401C0A4932
:101BA000088008460088A0420DDB00200880102134
:101BB0000648FFF7D3FEC0F10100C5B22A46102146
:101BC0000248FFF7D4FE70BD0A000020001001405B
:101BD00000BFFEE77047000000F01F0201219140A6
:101BE000024A430942F823107047000080E200E0F7
:101BF00070B5002100230F22C47804B3154C24686B
:101C000004F4E064C4F5E064210AC1F10403CA40AD
:101C1000447804FA03F184781440214309010E4CFE
:101C20000678A155047804F01F050124AC4005781E
:101C30006D11AD0005F1E025C5F8004109E004781B
:101C400004F01F050124AC40044D0678761145F8D8
:101C5000264070BD0CED00E000E400E080E100E013
:101C600002490143024A1160704700000000FA0572
:101C70000CED00E0704710B5FFF77EFE08B1FFF7EE
:101C80005FF910BD08B5FFF77DFE60B10121684620
:101C900000F0E6FC00F05CFCFA20FFF77BFF00F0B0
:101CA000C9FDFFF753F908BD10B500F0FFFBC0F107
:101CB0000100C4B2204600F0E7FB00F0F7FB044649
:101CC000214602A001F0E6F810BD00004368616EF5
:101CD000676520524553505F5374617274496E6654
:101CE0006F3A25630A00000010B50B4800783028D1
:101CF00008D13120084908700846017807A001F092
:101D0000C9F807E03020044908700846017803A0AC
:101D100001F0C0F810BD00000C0000205B5B342C0B
:101D200025635D5D0D0A000010B500F049FB10BD94
:101D30007047704770470146C88808B9012070474E
:101D40000020FCE701460020034A506820F4404090
:101D500008435060704700000010024029B1064A55
:101D600052690243044B5A6104E0034A52698243B8
:101D7000014B5A61704700000010024029B1064A29
:101D8000D2690243044BDA6104E0034AD269824318
:101D9000014BDA61704700000010024029B1064A89
:101DA00092690243044B9A6104E0034A92698243B8
:101DB000014B9A6170470000001002400F48006814
:101DC00040F001000D490860084640680C49084091
:101DD0000A494860084600680A49084007490860FF
:101DE0000846006820F4802008600846406820F417
:101DF000FE0048604FF41F008860704700100240EA
:101E00000000FFF8FFFFF6FE30B50021002200249D
:101E100000232D4D6D6805F00C0121B1042905D07A
:101E2000082923D105E0294D056022E0274D0560F2
:101E30001FE0254D6D6805F47012234D6D6805F4A3
:101E40008034022505EB92421CB9214D55430560B3
:101E50000BE01D4D6D6805F400351DB11C4D55435B
:101E6000056002E0194D5543056002E0174D05601D
:101E700000BF00BF144D6D6805F0F0010909154D54
:101E80006B5C0568DD4045600F4D6D6805F4E061F1
:101E9000090A104D6B5C4568DD4085600A4D6D6830
:101EA00005F46051C90A0B4D6B5C4568DD40C560A7
:101EB000054D6D6805F44041890B074D6B5CC568A5
:101EC000B5FBF3F5056130BD0010024000127A0049
:101ED00000093D00360000204600002010B50146F4
:101EE0000022002300204A11012A02D1094C236854
:101EF00006E0022A02D1074C236A01E0054C636A1E
:101F000001F01F02012494401C400CB1012000E0AC
:101F1000002010BD001002400248406800F00C0094
:101F2000704700000010024001460020034A50683C
:101F300020F0F0000843506070470000001002409D
:101F40001149096821F480310F4A1160114609686E
:101F500021F480211160B0F5803F03D0B0F5802FCF
:101F60000ED106E00849096841F48031064A116043
:101F700007E00549096841F4A021034A116000E027
:101F800000BF00BF70470000001002400146002063
:101F9000034A506820F4E060084350607047000036
:101FA0000010024001460020034A506820F46050AF
:101FB00040EAC100506070470010024001490866C5
:101FC000704700000000424202460020044B58685F
:101FD00020F47C1042EA01031843014B586070471B
:101FE0000010024001460020034A506820F0030020
:101FF00008435060704700000010024038B50020D0
:1020000000900024002500BF3120FFF767FF054640
:102010000098401C00900098B0F5A06F01D0002DF2
:10202000F2D03120FFF75AFF08B1012400E000246C
:10203000204638BD2DE9F84311480078401C10496E
:10204000087008460078012818DB684600F0ECFAB2
:1020500088B1BDF80000FEF751FC05460022094B8F
:10206000FEF762FB0746FEF782FC04460648074976
:10207000098840F82140002001490870BDE8F88334
:10208000210000200000F03F48010020180000203F
:1020900010B504460B480078302802D031280AD108
:1020A00000E00CE0204600F01DF807482168FFF72B
:1020B0009FFB206003E005A000F0ECFE00BF00BF26
:1020C00010BD00000C000020680000204552524F57
:1020D000523AC2CBB2A8C6F7D1A1D4F1B4EDCEF337
:1020E0000000000010B504460123224621460648A0
:1020F000FEF73CF8054920680968FEF7FEF9206004
:102100002046FEF777FE10BDA4000020140000203A
:10211000002100BF03E0002240F82120491C0629CD
:10212000F9DB00228261C261704700002DE9F047AF
:1021300082465046FEF708FC8046094A094BFEF7E6
:10214000F3FA064632460B4600200749FEF75EFBCF
:102150000446FEF70CFC05490860BDE8F087000066
:102160007B14AE47E17A843F00004E4028000020F7
:102170002DE9F04F87B0814600200690A9F10104B7
:10218000002682460025059000BF0CE0384A52F830
:1021900026101346721C53F82200FEF7A8F93549A1
:1021A00041F82600761CA9F10100B042EEDC4FF0A8
:1021B000000A26E000251DE02E4B6A1C53F8221071
:1021C0001A4652F82500FEF7F9FB12D2294951F8B8
:1021D0002500FEF7A0FB05902649681C51F8200059
:1021E00041F825000598FEF780FB224A691C42F859
:1021F00021006D1C601EA0EB0A00A842DCDC0AF185
:10220000010A601E5045D5DC002C2CDD204604EB75
:10221000D0714910A4EB410139B104EBD0714910E0
:10222000144A52F8211006911DE0A34604EBDB721C
:102230005210521E0F4B53F8221004EBD47252105E
:10224000049453F82200FEF700F90190FEF77CFB9E
:1022500000224FF08043CDE90201FEF7D7FA07468E
:10226000FEF785FB0690069807B0BDE8F08F0000EA
:10227000C80D0020481A00202DE9F0470746002528
:102280000024002600BF3DE0224850F824103846C4
:10229000FEF78AFB35D8621E1E4B53F822101A46F1
:1022A00052F82400FEF78AFB2BD21A4B621C53F81B
:1022B00022101A4652F82400FEF780FB21D2B5F511
:1022C000487F00DB22E02046FEF70FFB8146681EB8
:1022D000114A52F820104846FEF709F980460F4986
:1022E000FEF76CFB0DD22046FEF7FFFA29466D1C67
:1022F000094A42F82100C6F10106314608A000F063
:10230000C9FD641C40F21F308442BDDB00BF28467B
:10231000BDE8F08748010020C80D002000002041E2
:102320005B5B342C25645D5D0D0A00002DE9F04FE8
:1023300087B02148D0F80090D0F800A04FF0000BF3
:10234000002400BF14E01C4951F824004946FEF760
:1023500035FB02D2184850F82490174951F8240050
:102360005146FEF721FB02D2134850F824A0641C0A
:10237000B4F5487FE7DB51464846FEF7B8F80190D0
:10238000FEF7E2FA07464FF033320C4BFEF7CCF97A
:10239000CDE904015046FEF7D7FACDE90201DDE9A7
:1023A0000423FEF71AF90546FEF7E1FA834658467C
:1023B00007B0BDE8F08F0000480100203333EB3F49
:1023C00070B505480068FEF7BFFA044622460B4682
:1023D00002A000F05FFD70BD280000205B5B322C86
:1023E00025665D5D0D0A00002DE9F04100BF002467
:1023F0000025FFF79BFF8046FEF7A6FA06460F462C
:1024000030463946FEF7B3FA8046FFF735FF0446FB
:102410002046FFF7ADFE05462846FFF787FEFFF78B
:10242000CFFFBDE8F081000010B5962000F09CF9C8
:10243000FEF7D4FE01200749087007A000F02AFD2E
:1024400008A000F027FD0BA000F024FD00200D499E
:10245000086010BD1A0000207B7B322C48527D7D25
:102460000D0A00007B7B332C4852466C61677D7DF2
:102470000D0A00007B7B342C46696C7465727D7D8F
:102480000D0A00001C00002010B1012808D103E053
:102490000021054A117004E00121034A117000E097
:1024A00000BF00BF704700001A00002001480078FC
:1024B000704700001A00002010B51448007880B959
:1024C0001348007801281ED100201149087000220D
:1024D0004FF400510F48FFF74AFA0FA000F0DAFC62
:1024E00011E00A48007801280DD10948007850B958
:1024F000012007490870012241030648FFF737FA17
:102500000CA000F0C7FC0248007810BD1A000020A3
:102510002000002000100140494E464FA3BABAF4F3
:10252000CEFCD0C5BAC5D5B9CABEBFAACABC0D0AB1
:1025300000000000494E464FA3BABAF4CEFCD0C505
:10254000BAC5D5B9CABECDA3D6B90D0A00000000E0
:1025500010B5FFF7B1FF012800D110BD00F0B0F8B1
:102560001848006800B9F8E717480088401C164969
:10257000088008460088B0F5487F20DBFFF734FF6D
:1025800000201149088011480078302802D03128F5
:1025900014D10AE00D480078401C0C490870084628
:1025A00001780BA000F076FC08E0302007490870A5
:1025B0000846017806A000F06DFC00BF00BF00BF18
:1025C000CBE700001C0000201800002023000020A2
:1025D0005B5B332C25635D5D0D0A000070B50D4813
:1025E0000078401C0B4908700846007801280FDB72
:1025F00009490A4A128851F82200FEF7A5F9044653
:1026000022460B4606A000F045FC00200149087058
:1026100070BD0000220000204801002018000020AA
:1026200025660D0A0000000070B504460025012251
:1026300021460348FFF752F8C5B2284670BD000096
:10264000A827002070B50446002501222146034832
:10265000FFF722F8C5B2284670BD0000C82600204A
:1026600070B504460D4600262A4621460248FFF76B
:1026700013F8C6B2304670BDD426002070B50546AA
:102680000C46012D05D1012280210C48FFF76FF97E
:1026900005E025B9002280210848FFF768F9012CE0
:1026A00005D1012240210548FFF761F905E024B971
:1026B000002240210148FFF75AF970BD000C01408B
:1026C00010B525480068052844D2DFE800F0030D66
:1026D0001721390001210020FFF7D0FF1E480068B4
:1026E000401C1D49086035E000210846FFF7C6FF81
:1026F00019480068401C184908602BE0002101209F
:10270000FFF7BCFF14480068401C1349086021E033
:10271000FFF790FC1149124A128801EB8200FFF783
:10272000B7FCFFF75BFF00210846FFF7A7FF0A4849
:102730000068401C0849086001200A49086009E057
:1027400000210846FFF79AFF002003490860054969
:10275000086000BF00BF10BD240000204801002019
:10276000180000201C00002010B50446A1B2002073
:10277000FEF79CFE01210020FEF7A8FE10BD704769
:1027800070B504460D4616462548005D4006000E0D
:102790002349085524B1012C0CD0022C1ED113E082
:1027A00002212048FFF7D1F81D49095D08431C4963
:1027B000085514E004211B48FFF7C7F81849095DC4
:1027C0000843174908550AE001211748FFF7BDF8EB
:1027D0001349095D08431249085500E000BF00BFD6
:1027E0000F48005D1149095D884208D11048005D1D
:1027F000012804D1B04700200D4908550EE00848D3
:10280000005D0A49095DC943C9B2884206D108483A
:10281000005D18B9A84701200549085570BD0000A2
:1028200003000020001001400008014000000020CB
:102830000600002010B50D480078401C0B490870B8
:102840000846007805280FDB00200870084A09496F
:10285000FFF796FF084A09490120FFF791FF084A50
:1028600008490220FFF78CFF10BD0000090000207E
:10287000A91C0008311D0008E91C0008331D0008D0
:10288000291D0008351D000810B50446E1B20548B1
:1028900000F0D5FA00BF4021024800F003FA0028FA
:1028A000F9D010BD0038014010B500F001F810BD9E
:1028B0000CB50020019000903348006840F480304F
:1028C0003149086000BF3048006800F400300090D3
:1028D0000198401C0190009818B90198B0F5A06FBC
:1028E000F1D12948006800F4003010B101200090B7
:1028F00001E0002000900098012843D1234800689F
:1029000040F01000214908600846006820F00300EC
:1029100008600846006840F0020008601A484068F5
:10292000194948600846406848600846406840F4D5
:10293000806048600846406820F47C104860084683
:10294000406840F4E81048600846006840F0807035
:10295000086000BF0C48006800F000700028F9D043
:102960000948406820F0030007494860084640686D
:1029700040F00200486000BF0348406800F00C00CF
:102980000828F9D10CBD00000010024000200240D0
:1029900010B500F00BF910BD10B51348006840F0F9
:1029A00001001149086008464068104908400E4976
:1029B0004860084600680E4908400B490860084610
:1029C000006820F4802008600846406820F4FE007B
:1029D00048604FF41F008860FFF766FF4FF000600B
:1029E0000449086010BD0000001002400000FFF81C
:1029F000FFFFF6FE08ED00E010B50121880700F0AA
:102A000060F8012803D10121800700F04BF8074846
:102A10000088401C0549088008460088022804DB1D
:102A20000020088001200249087010BD2E000020FF
:102A30002C00002010B50121064800F042F818B122
:102A40000121044800F02EF80348008800F00AFA3B
:102A500010BD0000000400403400002010B501212A
:102A60000D4800F02EF8012803D101210A4800F09A
:102A700019F80A480088401C00B208490880084636
:102A8000B0F90000B0F57A7F04DB00200880012057
:102A90000349087010BD0000000C00403000002009
:102AA0002D000020CA430282704721B1028842F003
:102AB0000102028004E002884FF6FE731A40028091
:102AC000704730B50246002000230024158A05EA2D
:102AD0000103958905EA010413B10CB1012000E05E
:102AE000002030BD1AB183890B43838102E08389C2
:102AF0008B438381704782884FF68F731A408280A0
:102B000082880A4382807047002202881D4B9842C7
:102B10000ED01D4B98420BD0B0F1804F08D01B4B0C
:102B2000984205D01A4B984202D01A4B984204D1D1
:102B30004FF68F731A404B881A43174B984207D0B1
:102B4000164B984204D04FF6FF431A40CB881A43E5
:102B500002808B8883850B8803850A4B98420BD0B3
:102B6000094B984208D00E4B984205D00D4B984225
:102B700002D00D4B984201D10B7A03860123838248
:102B800070470000002C0140003401400004004068
:102B900000080040000C00400010004000140040FD
:102BA00000400140004401400048014004480068E2
:102BB00020B103480068401E0149086070470000CA
:102BC0004C00002008B50020009040F2255120481C
:102BD00000F075F858B12520FEF7FEFF1C4800F004
:102BE00029F9C0B200909DF8000000F047F90821D3
:102BF000174800F057F8012806D10821144800F0C2
:102C00002DF8134800F016F940F22771104800F033
:102C100056F8E0B140F227710D4800F028F8252061
:102C2000FEF7DAFF6846FFF70DFD9DF80010084833
:102C300000F005F90748FFF77EF840B1002006498B
:102C40000870002240F22771014800F062F808BDC8
:102C500000380140C82600203200002001F4007234
:102C6000B2F5007F00D100BFCA430280704710B5A3
:102C70000022002340F66A14A14200D100BF0A12CC
:102C800001249440A3B2DC43048010BD21B18289A9
:102C900042F40052828104E082894DF6FF731A40AB
:102CA0008281704702460020B1F5007F00D100BF4D
:102CB00013880B400BB1012000E00020704770B575
:102CC0000246002400230025002040F66A16B14287
:102CD00000D100BFC1F3421501F01F03012606FA1F
:102CE00003F3012D02D19689334006E0022D02D173
:102CF000168A334001E0968A33400C12012606FA08
:102D000004F41688344013B10CB1012000E0002017
:102D100070BDF0B50346002400260025002040F6D3
:102D20006A17B94200D100BF1846C1F3421401F03E
:102D30001F06012707FA06F5012C01D10C3004E02B
:102D4000022C01D1103000E014301AB107682F4373
:102D5000076002E00768AF430760F0BD2DE9F04768
:102D600086B005460E460024A24600BFA1460027B5
:102D7000B08900B100BF2F462C8A4CF6FF7004408A
:102D8000F08804432C82AC894EF6F3100440B088DE
:102D900031890843718908430443AC81AC8A4FF6FA
:102DA000FF400440B0890443AC8201A8FFF72CF82F
:102DB0001F48874202D1DDF810A001E0DDF80CA029
:102DC000A88900F4004040B10AEBCA0000EB0A10E9
:102DD00031684900B0FBF1F807E00AEBCA0000EBEC
:102DE0000A1031688900B0FBF1F86420B8FBF0F0FC
:102DF00004012009642101FB1089A88900F4004026
:102E000040B1322000EBC900B0FBF1F000F0070048
:102E1000044308E0322000EB09106421B0FBF1F01C
:102E200000F00F0004432C8106B0BDE8F0870000DD
:102E30000038014001468888C0F308007047C1F39C
:102E40000802828070474FF4165101600021818092
:102E5000C18001810C21418100218181704700BF27
:102E6000FEE7000031B50024012269460248FEF762
:102E70007EFCC4B2204638BDA827002031B500240E
:102E8000012269460248FEF74EFCC4B2204638BD16
:102E9000D42600200FB4054B10B503A9044A0298AC
:102EA00000F0DAF810BC5DF814FB00005F37000892
:102EB0006400002002E008C8121F08C1002AFAD1ED
:102EC00070477047002001E001C1121F002AFBD1AA
:102ED000704700002DE9FF5F82B00021DDE904307A
:102EE000020DDDF840B0034318D044F61050A2F2B2
:102EF000FF3242431514119801281FD0A5EB0B0097
:102F0000401C5FEA000A4FF000064E4FDFF8389190
:102F1000B046504615D5CAF1000413E011980124BB
:102F20004AA3012801D16FEA0B010298119AC0E966
:102F30000031C0E9024206B0BDE8F09FCBF10000CD
:102F4000DFE704460021404A491842EB0450CDE92E
:102F5000001012E0E00707D032463B4640464946A3
:102F6000FDF7E2FB8046894632463B46104619464D
:102F7000FDF7DAFB06460F466410002CEAD1DDE9C6
:102F80000401DDE90023BAF1000F06DAFDF7CCFBFE
:102F900042464B46FDF7C8FB05E0FDF737FC4246CD
:102FA0004B46FDF733FC04460E460022284BFDF746
:102FB00023FE03D84FF0FF30014607E00022254BE7
:102FC00020463146FDF709FBFDF7FEFD102409E020
:102FD000002C0ADB0A220023FDF710FD039B303290
:102FE0001A55641E50EA0102F2D1641C039AC4F11E
:102FF00011031444119A012A03D0012208430DD170
:103000000AE0084304D000204FF0110B119072E742
:10301000A3EB0B056D1E0DE05B4504DD4FF00002D8
:1030200005F1010504E003DA4FF00002A5F1010506
:10303000002AECD002981199C0E90231C0E900459C
:1030400079E70000000014400000F03F300000006D
:103050000000F0430000E03F2DE9FF4F95B09A4695
:10306000884606460025EEE1252877D1002427462C
:10307000F94A0121039400E0044316F8013F203B84
:1030800001FA03F01042F7D130782A2811D06FF0FE
:103090002F033078A0F13002092A16D8039A44F0A1
:1030A000020402EB820203EB42021044761C0390FE
:1030B000EFE758F8042B0392002A03DA504244F455
:1030C0000054039044F00204761C30782E2816D168
:1030D00016F8010F44F004042A280DD06FF02F02D7
:1030E0003078A0F13003092B09D807EB870302EBF6
:1030F0004303C718761CF3E758F8047B761C307836
:103100006C280FD006DC4C2817D068280DD06A2810
:1031100014D104E0742810D07A280FD10DE044F4C3
:1031200000140AE044F4801401E044F4401472787E
:10313000824202D104F58014761C761C3078662811
:103140000BD013DC582877D009DC002875D045282F
:10315000F6D04628F4D047281AD193E118E0632826
:1031600035D0642879D0652812D18BE1702873D0CE
:1031700008DC6728F1D069286FD06E280DD06F2841
:1031800006D1ACE073282CD0752874D0782853D0A1
:103190005246179990476D1C54E1C4F3025002281F
:1031A00009D003280DD0D8F8001004280DD00D60E8
:1031B00008F1040846E1D8F80010EA17C1E9005206
:1031C000F6E7D8F800100D80F2E70D70F0E718F878
:1031D000041B8DF8001000208DF80100EB46012043
:1031E00003E058F804BB4FF0FF3061074FF00001D7
:1031F00002D40DE009F101018946B9420FDA814597
:10320000F8DB1BF809100029F4D108E009F10101ED
:1032100089468142FADB1BF809100029F6D1039890
:103220005346A0EB090721463846179A00F080FA6A
:10323000284400EB090507E044E008E10DE01BF835
:10324000010B524617999047B9F10109F7D253463D
:1032500021463846179AF2E039E00A21C4F30252B7
:103260004FF0000B0091022A06D058F8040BC1174A
:10327000032A09D00AE023E008F1070020F0070242
:10328000F2E80201904605E000B2C117042A01D11C
:1032900040B2C117002906DA0A460021404261EB1C
:1032A00002012D2202E0220504D52B228DF80420F4
:1032B000012203E0E20701D02022F7E7914657E020
:1032C0000A2100E010214FF0000B00910BE01021CB
:1032D0004FF0000B44F004040827009103E008209D
:1032E0004FF0000B0090C4F30252022A05D058F8A8
:1032F000040B0021032A08D008E008F1070020F0A1
:103300000702F2E80201904603E080B2042A00D1ED
:10331000C0B24FF0000922072AD53278702A07D0B0
:10332000DDF800C08CF0100C5CEA0B0C05D00EE050
:1033300040228DF80420012208E050EA010306D063
:1033400030238DF804308DF8052002229146009B31
:1033500083F0080353EA0B030AD150EA010201D1BA
:10336000620705D530228DF804204FF001097F1E39
:103370003278582A04D039A20C920CAA02920BE09F
:103380003BA2F9E75B46009AFDF738FB0C9B9B5C80
:10339000029A521E0292137050EA0102F2D1029870
:1033A00004A9081A00F1200B600702D524F4803428
:1033B00000E001275F4502DDA7EB0B0000E00020E5
:1033C00000EB0B01009003984944401A0390E0037E
:1033D00006D453462146179A039800F0A9F90544EC
:1033E000002706E001A85246C05D179990476D1C62
:1033F0007F1C4F45F6DBE0030CD553462146179A58
:10340000039800F095F9054404E0302052461799DE
:1034100090476D1C0099481E00900029F5DC08E0DB
:103420000298029952460078491C029117999047D8
:103430006D1CBBF10001ABF1010BF1DC5BE100F0B5
:1034400065F90544761C307800287FF40DAE19B07C
:103450002846BDE8F08F00000928010030313233E2
:1034600034353637383961626364656600000000C0
:1034700030313233343536373839414243444546AA
:1034800000000000600700D4062708F1070020F0C4
:103490000700F0E80223804603F0004C5FEA0C00CE
:1034A00001D097A009E0200501D596A005E0E0072E
:1034B00001D095A001E0AFF24C001390307823F0DA
:1034C000004365280CD006DC452809D046281DD0CD
:1034D00047287FD13BE0662818D067287AD136E0AC
:1034E0000021112F01DB112000E0781CCDE9000143
:1034F00004A90CA8FFF7EEFCDDE90D010C9A4FF0D2
:10350000000B07F10109109200914EE04FF00040CE
:103510000097CDE9011004A90CA8FFF7DBFCDDE959
:103520000D020C9B0F994FF0000B914610930092E7
:1035300011B9791C00EB0109B7EB090003D4C0F104
:10354000FF3B07F10109A9EB0700019042E0012FC1
:1035500000DA01270021112F01DD112000E038469B
:10356000CDE9000104A90CA8FFF7B4FCDDE90D01C9
:103570000C9A00914FF0000BB946109221070FD41E
:10358000009A4A4503DA914601E0A9F10109B9F12F
:10359000010F05DD109AA9F10101515C3029F4D029
:1035A000B84202DA10F1040F03DA0121CDE901106B
:1035B00010E0002803DC8344A9EB000102E0411C79
:1035C000494500DD8946A0EB0B00401C01904FF0FF
:1035D00000400290200705D40198484502DB4FF0D7
:1035E000FF30019000208DF84B0002980DF14B0741
:1035F000B0F1004F25D002200C902B200D900298A6
:1036000000280CDA404202902D200D9007E00A219C
:103610000298FDF7DDF93031029007F8011D0C9991
:10362000481E0C900029F2DC02980028EFD1791E88
:103630000D980870307800F0200040F0450007F841
:10364000020D11A8C01BC01D02901398007800B194
:10365000012000EB0901019801EBE071029801449F
:103660000398401A401E0390E00306D453462146B7
:10367000179A039800F05CF805441398007818B185
:103680005246179990476D1CE00323D553462146B7
:10369000179A039800F04CF805441BE0BBF1000FAB
:1036A00007DB0098584504DD1098179910F80B00B7
:1036B00001E0179930205246904701980BF1010B19
:1036C000401E05F10105019004D12E2052461799A4
:1036D00090476D1CB9F10001A9F10109DEDC05E09C
:1036E00017F8010B5246179990476D1C0299481E16
:1036F00002900029F4DC53462146179A03989EE66F
:103700002D0000002B000000200000002DE9F041FA
:10371000044600251E461746880404D405E03946B1
:103720002020B0476D1C641EF9D52846BDE8F08105
:103730002DE9F041044600251E469046C80301D5F8
:10374000302700E02027880404D505E041463846AC
:10375000B0476D1C641EF9D52846BDE8F08170B5F0
:1037600004460D46E0B2FFF78FF8204670BD00001A
:10377000FEF78FF9FEF746F904A0FFF78BFB03E095
:10378000FEF780FAFEF777FAFAE70000496E6974EF
:103790002053797374656D20686173206265656E6E
:1037A0002066696E69736865642E0D0A000000006A
:1037B00003000000000000001D508E782D2BED3F0F
:1037C000AE1B23D71299F7BF1D508E782D2BED3FDE
:1037D0000300000000000000000000000000F03FB7
:1037E000AE1B23D71299F7BFB69C1CF15A56EA3F7D
:1037F0000300000000000000A9D198A13411EE3FA1
:10380000704CF6792295E2BFA9D198A13411EE3F10
:103810000300000000000000000000000000F03F76
:10382000704CF6792295E2BF51A331436922EC3FF7
:103830000300000000000000A9D198A13411EE3F60
:10384000D897C78D2B53F83FA9D198A13411EE3FDB
:103850000300000000000000000000000000F03F36
:10386000D897C78D2B53F83F51A331436922EC3FC2
:103870000100000003000000010000000000000043
:103880006A5B789A3B86BB3F0000000000000000A6
:103890000000000000000000000000000000F03FF9
:1038A0000000000000000040000000000000F03FA9
:1038B000B108FAAF2085EC3F0000000000000000D6
:1038C00000000000000000000100000003000000F4
:1038D0000100000000000000000000000000F03FB8
:1038E00000000000000000000000000000000000D8
:1038F000000000000000F03F5AFC9C087C77F0BFFD
:10390000E45AECBC2B64DD3F000000000000F03FF7
:1039100000000000000000000000000000000000A7
:10392000010000000000803F5AFFFFBF0000803F01
:10393000CBFFF73FF87C70BF050000000000803F20
:10394000618BADBF0000803F18F5CC3F27D561BF2C
:103950000000803FAA479EBF0000803F9A9FB33F70
:1039600009232CBF0000803FFCFB68BF0000803FA4
:1039700047CD9A3F13FBF6BE0000803F8F38C4BD91
:103980000000803F67A9843FC636A4BE0000803F88
:1039900006D3C43F0000803FB0A66D3FEF6363BE17
:1039A000C03900080000002068000000B42E0008A4
:1039B000283A000868000020182C0000C42E0008D7
:1039C00000000000000000000000000031000000C6
:1039D000741F783FB741FA39000001000000000071
:1039E00001000030000000000000000000000000A6
:1039F00000000000000000000000010203040102BA
:103A0000030406070809020406080000000000007D
:103A100000A24A04000000000000000001020304AC
:083A2000060708090000000080
:0400000508000131BD
:00000001FF
